{
  "_format": "hh-sol-artifact-1",
  "contractName": "EthDriveAccount",
  "sourceName": "contracts/EthDriveAccount.sol",
  "abi": [
    {
      "inputs": [
        {
          "internalType": "contract IEntryPoint",
          "name": "anEntryPoint",
          "type": "address"
        }
      ],
      "stateMutability": "nonpayable",
      "type": "constructor"
    },
    {
      "inputs": [],
      "name": "ECDSAInvalidSignature",
      "type": "error"
    },
    {
      "inputs": [
        {
          "internalType": "uint256",
          "name": "length",
          "type": "uint256"
        }
      ],
      "name": "ECDSAInvalidSignatureLength",
      "type": "error"
    },
    {
      "inputs": [
        {
          "internalType": "bytes32",
          "name": "s",
          "type": "bytes32"
        }
      ],
      "name": "ECDSAInvalidSignatureS",
      "type": "error"
    },
    {
      "inputs": [],
      "name": "entryPoint",
      "outputs": [
        {
          "internalType": "contract IEntryPoint",
          "name": "",
          "type": "address"
        }
      ],
      "stateMutability": "view",
      "type": "function"
    },
    {
      "inputs": [
        {
          "internalType": "address",
          "name": "to",
          "type": "address"
        },
        {
          "internalType": "uint256",
          "name": "value",
          "type": "uint256"
        },
        {
          "internalType": "bytes",
          "name": "data",
          "type": "bytes"
        }
      ],
      "name": "execute",
      "outputs": [],
      "stateMutability": "nonpayable",
      "type": "function"
    },
    {
      "inputs": [
        {
          "internalType": "address[]",
          "name": "to",
          "type": "address[]"
        },
        {
          "internalType": "uint256[]",
          "name": "value",
          "type": "uint256[]"
        },
        {
          "internalType": "bytes[]",
          "name": "data",
          "type": "bytes[]"
        }
      ],
      "name": "executeBatch",
      "outputs": [],
      "stateMutability": "nonpayable",
      "type": "function"
    },
    {
      "inputs": [],
      "name": "getNonce",
      "outputs": [
        {
          "internalType": "uint256",
          "name": "",
          "type": "uint256"
        }
      ],
      "stateMutability": "view",
      "type": "function"
    },
    {
      "inputs": [
        {
          "internalType": "bytes32",
          "name": "hash",
          "type": "bytes32"
        },
        {
          "internalType": "bytes",
          "name": "signature",
          "type": "bytes"
        }
      ],
      "name": "isValidSignature",
      "outputs": [
        {
          "internalType": "bytes4",
          "name": "magicValue",
          "type": "bytes4"
        }
      ],
      "stateMutability": "view",
      "type": "function"
    },
    {
      "inputs": [
        {
          "internalType": "address",
          "name": "signer",
          "type": "address"
        },
        {
          "internalType": "bytes",
          "name": "",
          "type": "bytes"
        }
      ],
      "name": "isValidSigner",
      "outputs": [
        {
          "internalType": "bytes4",
          "name": "",
          "type": "bytes4"
        }
      ],
      "stateMutability": "view",
      "type": "function"
    },
    {
      "inputs": [
        {
          "internalType": "address",
          "name": "",
          "type": "address"
        },
        {
          "internalType": "address",
          "name": "",
          "type": "address"
        },
        {
          "internalType": "uint256[]",
          "name": "",
          "type": "uint256[]"
        },
        {
          "internalType": "uint256[]",
          "name": "",
          "type": "uint256[]"
        },
        {
          "internalType": "bytes",
          "name": "",
          "type": "bytes"
        }
      ],
      "name": "onERC1155BatchReceived",
      "outputs": [
        {
          "internalType": "bytes4",
          "name": "",
          "type": "bytes4"
        }
      ],
      "stateMutability": "pure",
      "type": "function"
    },
    {
      "inputs": [
        {
          "internalType": "address",
          "name": "",
          "type": "address"
        },
        {
          "internalType": "address",
          "name": "",
          "type": "address"
        },
        {
          "internalType": "uint256",
          "name": "",
          "type": "uint256"
        },
        {
          "internalType": "uint256",
          "name": "",
          "type": "uint256"
        },
        {
          "internalType": "bytes",
          "name": "",
          "type": "bytes"
        }
      ],
      "name": "onERC1155Received",
      "outputs": [
        {
          "internalType": "bytes4",
          "name": "",
          "type": "bytes4"
        }
      ],
      "stateMutability": "pure",
      "type": "function"
    },
    {
      "inputs": [
        {
          "internalType": "address",
          "name": "",
          "type": "address"
        },
        {
          "internalType": "address",
          "name": "",
          "type": "address"
        },
        {
          "internalType": "uint256",
          "name": "",
          "type": "uint256"
        },
        {
          "internalType": "bytes",
          "name": "",
          "type": "bytes"
        }
      ],
      "name": "onERC721Received",
      "outputs": [
        {
          "internalType": "bytes4",
          "name": "",
          "type": "bytes4"
        }
      ],
      "stateMutability": "pure",
      "type": "function"
    },
    {
      "inputs": [],
      "name": "owner",
      "outputs": [
        {
          "internalType": "address",
          "name": "",
          "type": "address"
        }
      ],
      "stateMutability": "view",
      "type": "function"
    },
    {
      "inputs": [],
      "name": "state",
      "outputs": [
        {
          "internalType": "uint256",
          "name": "",
          "type": "uint256"
        }
      ],
      "stateMutability": "view",
      "type": "function"
    },
    {
      "inputs": [
        {
          "internalType": "bytes4",
          "name": "interfaceId",
          "type": "bytes4"
        }
      ],
      "name": "supportsInterface",
      "outputs": [
        {
          "internalType": "bool",
          "name": "",
          "type": "bool"
        }
      ],
      "stateMutability": "view",
      "type": "function"
    },
    {
      "inputs": [],
      "name": "token",
      "outputs": [
        {
          "internalType": "uint256",
          "name": "",
          "type": "uint256"
        },
        {
          "internalType": "address",
          "name": "",
          "type": "address"
        },
        {
          "internalType": "uint256",
          "name": "",
          "type": "uint256"
        }
      ],
      "stateMutability": "view",
      "type": "function"
    },
    {
      "inputs": [
        {
          "components": [
            {
              "internalType": "address",
              "name": "sender",
              "type": "address"
            },
            {
              "internalType": "uint256",
              "name": "nonce",
              "type": "uint256"
            },
            {
              "internalType": "bytes",
              "name": "initCode",
              "type": "bytes"
            },
            {
              "internalType": "bytes",
              "name": "callData",
              "type": "bytes"
            },
            {
              "internalType": "bytes32",
              "name": "accountGasLimits",
              "type": "bytes32"
            },
            {
              "internalType": "uint256",
              "name": "preVerificationGas",
              "type": "uint256"
            },
            {
              "internalType": "bytes32",
              "name": "gasFees",
              "type": "bytes32"
            },
            {
              "internalType": "bytes",
              "name": "paymasterAndData",
              "type": "bytes"
            },
            {
              "internalType": "bytes",
              "name": "signature",
              "type": "bytes"
            }
          ],
          "internalType": "struct PackedUserOperation",
          "name": "userOp",
          "type": "tuple"
        },
        {
          "internalType": "bytes32",
          "name": "userOpHash",
          "type": "bytes32"
        },
        {
          "internalType": "uint256",
          "name": "missingAccountFunds",
          "type": "uint256"
        }
      ],
      "name": "validateUserOp",
      "outputs": [
        {
          "internalType": "uint256",
          "name": "validationData",
          "type": "uint256"
        }
      ],
      "stateMutability": "nonpayable",
      "type": "function"
    },
    {
      "stateMutability": "payable",
      "type": "receive"
    }
  ],
  "bytecode": "0x60a06040523480156200001157600080fd5b50604051620024a6380380620024a68339818101604052810190620000379190620000f0565b8073ffffffffffffffffffffffffffffffffffffffff1660808173ffffffffffffffffffffffffffffffffffffffff16815250505062000122565b600080fd5b600073ffffffffffffffffffffffffffffffffffffffff82169050919050565b6000620000a48262000077565b9050919050565b6000620000b88262000097565b9050919050565b620000ca81620000ab565b8114620000d657600080fd5b50565b600081519050620000ea81620000bf565b92915050565b60006020828403121562000109576200010862000072565b5b60006200011984828501620000d9565b91505092915050565b6080516123686200013e600039600061093a01526123686000f3fe6080604052600436106100e15760003560e01c8063b0d691fe1161007f578063c19d93fb11610059578063c19d93fb14610303578063d087d2881461032e578063f23a6e6114610359578063fc0c546a14610396576100e8565b8063b0d691fe14610272578063b61d27f61461029d578063bc197c81146102c6576100e8565b806319822f7c116100bb57806319822f7c146101a457806347e1da2a146101e1578063523e32601461020a5780638da5cb5b14610247576100e8565b806301ffc9a7146100ed578063150b7a021461012a5780631626ba7e14610167576100e8565b366100e857005b600080fd5b3480156100f957600080fd5b50610114600480360381019061010f9190611348565b6103c3565b6040516101219190611390565b60405180910390f35b34801561013657600080fd5b50610151600480360381019061014c91906114a4565b6105cd565b60405161015e919061153b565b60405180910390f35b34801561017357600080fd5b5061018e600480360381019061018991906116cd565b6105e2565b60405161019b919061153b565b60405180910390f35b3480156101b057600080fd5b506101cb60048036038101906101c6919061174e565b61061e565b6040516101d891906117cc565b60405180910390f35b3480156101ed57600080fd5b50610208600480360381019061020391906118e9565b610651565b005b34801561021657600080fd5b50610231600480360381019061022c919061199d565b610832565b60405161023e919061153b565b60405180910390f35b34801561025357600080fd5b5061025c61088c565b6040516102699190611a0c565b60405180910390f35b34801561027e57600080fd5b50610287610936565b6040516102949190611a86565b60405180910390f35b3480156102a957600080fd5b506102c460048036038101906102bf9190611aa1565b61095e565b005b3480156102d257600080fd5b506102ed60048036038101906102e89190611b15565b610a65565b6040516102fa919061153b565b60405180910390f35b34801561030f57600080fd5b50610318610a7d565b60405161032591906117cc565b60405180910390f35b34801561033a57600080fd5b50610343610a86565b60405161035091906117cc565b60405180910390f35b34801561036557600080fd5b50610380600480360381019061037b9190611bf1565b610b11565b60405161038d919061153b565b60405180910390f35b3480156103a257600080fd5b506103ab610b27565b6040516103ba93929190611c8b565b60405180910390f35b60007f01ffc9a7000000000000000000000000000000000000000000000000000000007bffffffffffffffffffffffffffffffffffffffffffffffffffffffff1916827bffffffffffffffffffffffffffffffffffffffffffffffffffffffff1916148061048e57507f150b7a02000000000000000000000000000000000000000000000000000000007bffffffffffffffffffffffffffffffffffffffffffffffffffffffff1916827bffffffffffffffffffffffffffffffffffffffffffffffffffffffff1916145b806104f657507f4e2312e0000000000000000000000000000000000000000000000000000000007bffffffffffffffffffffffffffffffffffffffffffffffffffffffff1916827bffffffffffffffffffffffffffffffffffffffffffffffffffffffff1916145b8061055e57507f1626ba7e000000000000000000000000000000000000000000000000000000007bffffffffffffffffffffffffffffffffffffffffffffffffffffffff1916827bffffffffffffffffffffffffffffffffffffffffffffffffffffffff1916145b806105c657507f6faff5f1000000000000000000000000000000000000000000000000000000007bffffffffffffffffffffffffffffffffffffffffffffffffffffffff1916827bffffffffffffffffffffffffffffffffffffffffffffffffffffffff1916145b9050919050565b600063150b7a0260e01b905095945050505050565b6000806105f76105f061088c565b8585610ba7565b9050801561060f57631626ba7e60e01b915050610618565b600060e01b9150505b92915050565b6000610628610c37565b6106328484610cae565b90506106418460200135610d68565b61064a82610d6b565b9392505050565b610659610936565b73ffffffffffffffffffffffffffffffffffffffff163373ffffffffffffffffffffffffffffffffffffffff1614806106c4575061069561088c565b73ffffffffffffffffffffffffffffffffffffffff163373ffffffffffffffffffffffffffffffffffffffff16145b610703576040517f08c379a00000000000000000000000000000000000000000000000000000000081526004016106fa90611d1f565b60405180910390fd5b818190508686905014801561071d57508181905084849050145b61075c576040517f08c379a000000000000000000000000000000000000000000000000000000000815260040161075390611d8b565b60405180910390fd5b60005b828290508110156108295761081c8787838181106107805761077f611dab565b5b90506020020160208101906107959190611dda565b8686848181106107a8576107a7611dab565b5b905060200201358585858181106107c2576107c1611dab565b5b90506020028101906107d49190611e16565b8080601f016020809104026020016040519081016040528093929190818152602001838380828437600081840152601f19601f82011690508083019250505050505050610e07565b808060010191505061075f565b50505050505050565b600061083c61088c565b73ffffffffffffffffffffffffffffffffffffffff168473ffffffffffffffffffffffffffffffffffffffff160361087d5763523e326060e01b9050610885565b600060e01b90505b9392505050565b60008060008061089a610b27565b9250925092504683146108b35760009350505050610933565b8173ffffffffffffffffffffffffffffffffffffffff16636352211e826040518263ffffffff1660e01b81526004016108ec91906117cc565b602060405180830381865afa158015610909573d6000803e3d6000fd5b505050506040513d601f19601f8201168201806040525081019061092d9190611e8e565b93505050505b90565b60007f0000000000000000000000000000000000000000000000000000000000000000905090565b610966610936565b73ffffffffffffffffffffffffffffffffffffffff163373ffffffffffffffffffffffffffffffffffffffff1614806109d157506109a261088c565b73ffffffffffffffffffffffffffffffffffffffff163373ffffffffffffffffffffffffffffffffffffffff16145b610a10576040517f08c379a0000000000000000000000000000000000000000000000000000000008152600401610a0790611d1f565b60405180910390fd5b610a5f848484848080601f016020809104026020016040519081016040528093929190818152602001838380828437600081840152601f19601f82011690508083019250505050505050610e07565b50505050565b600063bc197c8160e01b905098975050505050505050565b60008054905090565b6000610a90610936565b73ffffffffffffffffffffffffffffffffffffffff166335567e1a3060006040518363ffffffff1660e01b8152600401610acb929190611f1a565b602060405180830381865afa158015610ae8573d6000803e3d6000fd5b505050506040513d601f19601f82011682018060405250810190610b0c9190611f58565b905090565b600063f23a6e6160e01b90509695505050505050565b600080600080606067ffffffffffffffff811115610b4857610b476115a2565b5b6040519080825280601f01601f191660200182016040528015610b7a5781602001600182028036833780820191505090505b5090506060604d60208301303c80806020019051810190610b9b9190611fc3565b93509350935050909192565b6000806000610bb68585610ea2565b509150915060006003811115610bcf57610bce612016565b5b816003811115610be257610be1612016565b5b148015610c1a57508573ffffffffffffffffffffffffffffffffffffffff168273ffffffffffffffffffffffffffffffffffffffff16145b80610c2c5750610c2b868686610efe565b5b925050509392505050565b610c3f610936565b73ffffffffffffffffffffffffffffffffffffffff163373ffffffffffffffffffffffffffffffffffffffff1614610cac576040517f08c379a0000000000000000000000000000000000000000000000000000000008152600401610ca390612091565b60405180910390fd5b565b600080610cba83611022565b9050610d198185806101000190610cd19190611e16565b8080601f016020809104026020016040519081016040528093929190818152602001838380828437600081840152601f19601f82011690508083019250505050505050611058565b73ffffffffffffffffffffffffffffffffffffffff16610d3761088c565b73ffffffffffffffffffffffffffffffffffffffff1614610d5c576001915050610d62565b60009150505b92915050565b50565b60008114610e045760003373ffffffffffffffffffffffffffffffffffffffff16827fffffffffffffffffffffffffffffffffffffffffffffffffffffffffffffffff90604051610dbb906120e2565b600060405180830381858888f193505050503d8060008114610df9576040519150601f19603f3d011682016040523d82523d6000602084013e610dfe565b606091505b50509050505b50565b6000808473ffffffffffffffffffffffffffffffffffffffff168484604051610e30919061215d565b60006040518083038185875af1925050503d8060008114610e6d576040519150601f19603f3d011682016040523d82523d6000602084013e610e72565b606091505b509150915081610e8457805160208201fd5b600080815480929190610e96906121a3565b91905055505050505050565b60008060006041845103610ee75760008060006020870151925060408701519150606087015160001a9050610ed988828585611084565b955095509550505050610ef7565b60006002855160001b9250925092505b9250925092565b60008060008573ffffffffffffffffffffffffffffffffffffffff168585604051602401610f2d929190612244565b604051602081830303815290604052631626ba7e60e01b6020820180517bffffffffffffffffffffffffffffffffffffffffffffffffffffffff8381831617835250505050604051610f7f919061215d565b600060405180830381855afa9150503d8060008114610fba576040519150601f19603f3d011682016040523d82523d6000602084013e610fbf565b606091505b5091509150818015610fd357506020815110155b80156110175750631626ba7e60e01b7bffffffffffffffffffffffffffffffffffffffffffffffffffffffff1916818060200190518101906110159190612289565b145b925050509392505050565b60007f19457468657265756d205369676e6564204d6573736167653a0a33320000000060005281601c52603c6000209050919050565b6000806000806110688686610ea2565b9250925092506110788282611178565b82935050505092915050565b60008060007f7fffffffffffffffffffffffffffffff5d576e7357a4501ddfe92f46681b20a08460001c11156110c457600060038592509250925061116e565b6000600188888888604051600081526020016040526040516110e994939291906122d2565b6020604051602081039080840390855afa15801561110b573d6000803e3d6000fd5b505050602060405103519050600073ffffffffffffffffffffffffffffffffffffffff168173ffffffffffffffffffffffffffffffffffffffff160361115f57600060016000801b9350935093505061116e565b8060008060001b935093509350505b9450945094915050565b6000600381111561118c5761118b612016565b5b82600381111561119f5761119e612016565b5b03156112d857600160038111156111b9576111b8612016565b5b8260038111156111cc576111cb612016565b5b03611203576040517ff645eedf00000000000000000000000000000000000000000000000000000000815260040160405180910390fd5b6002600381111561121757611216612016565b5b82600381111561122a57611229612016565b5b0361126f578060001c6040517ffce698f700000000000000000000000000000000000000000000000000000000815260040161126691906117cc565b60405180910390fd5b60038081111561128257611281612016565b5b82600381111561129557611294612016565b5b036112d757806040517fd78bce0c0000000000000000000000000000000000000000000000000000000081526004016112ce9190612317565b60405180910390fd5b5b5050565b6000604051905090565b600080fd5b600080fd5b60007fffffffff0000000000000000000000000000000000000000000000000000000082169050919050565b611325816112f0565b811461133057600080fd5b50565b6000813590506113428161131c565b92915050565b60006020828403121561135e5761135d6112e6565b5b600061136c84828501611333565b91505092915050565b60008115159050919050565b61138a81611375565b82525050565b60006020820190506113a56000830184611381565b92915050565b600073ffffffffffffffffffffffffffffffffffffffff82169050919050565b60006113d6826113ab565b9050919050565b6113e6816113cb565b81146113f157600080fd5b50565b600081359050611403816113dd565b92915050565b6000819050919050565b61141c81611409565b811461142757600080fd5b50565b60008135905061143981611413565b92915050565b600080fd5b600080fd5b600080fd5b60008083601f8401126114645761146361143f565b5b8235905067ffffffffffffffff81111561148157611480611444565b5b60208301915083600182028301111561149d5761149c611449565b5b9250929050565b6000806000806000608086880312156114c0576114bf6112e6565b5b60006114ce888289016113f4565b95505060206114df888289016113f4565b94505060406114f08882890161142a565b935050606086013567ffffffffffffffff811115611511576115106112eb565b5b61151d8882890161144e565b92509250509295509295909350565b611535816112f0565b82525050565b6000602082019050611550600083018461152c565b92915050565b6000819050919050565b61156981611556565b811461157457600080fd5b50565b60008135905061158681611560565b92915050565b600080fd5b6000601f19601f8301169050919050565b7f4e487b7100000000000000000000000000000000000000000000000000000000600052604160045260246000fd5b6115da82611591565b810181811067ffffffffffffffff821117156115f9576115f86115a2565b5b80604052505050565b600061160c6112dc565b905061161882826115d1565b919050565b600067ffffffffffffffff821115611638576116376115a2565b5b61164182611591565b9050602081019050919050565b82818337600083830152505050565b600061167061166b8461161d565b611602565b90508281526020810184848401111561168c5761168b61158c565b5b61169784828561164e565b509392505050565b600082601f8301126116b4576116b361143f565b5b81356116c484826020860161165d565b91505092915050565b600080604083850312156116e4576116e36112e6565b5b60006116f285828601611577565b925050602083013567ffffffffffffffff811115611713576117126112eb565b5b61171f8582860161169f565b9150509250929050565b600080fd5b6000610120828403121561174557611744611729565b5b81905092915050565b600080600060608486031215611767576117666112e6565b5b600084013567ffffffffffffffff811115611785576117846112eb565b5b6117918682870161172e565b93505060206117a286828701611577565b92505060406117b38682870161142a565b9150509250925092565b6117c681611409565b82525050565b60006020820190506117e160008301846117bd565b92915050565b60008083601f8401126117fd576117fc61143f565b5b8235905067ffffffffffffffff81111561181a57611819611444565b5b60208301915083602082028301111561183657611835611449565b5b9250929050565b60008083601f8401126118535761185261143f565b5b8235905067ffffffffffffffff8111156118705761186f611444565b5b60208301915083602082028301111561188c5761188b611449565b5b9250929050565b60008083601f8401126118a9576118a861143f565b5b8235905067ffffffffffffffff8111156118c6576118c5611444565b5b6020830191508360208202830111156118e2576118e1611449565b5b9250929050565b60008060008060008060608789031215611906576119056112e6565b5b600087013567ffffffffffffffff811115611924576119236112eb565b5b61193089828a016117e7565b9650965050602087013567ffffffffffffffff811115611953576119526112eb565b5b61195f89828a0161183d565b9450945050604087013567ffffffffffffffff811115611982576119816112eb565b5b61198e89828a01611893565b92509250509295509295509295565b6000806000604084860312156119b6576119b56112e6565b5b60006119c4868287016113f4565b935050602084013567ffffffffffffffff8111156119e5576119e46112eb565b5b6119f18682870161144e565b92509250509250925092565b611a06816113cb565b82525050565b6000602082019050611a2160008301846119fd565b92915050565b6000819050919050565b6000611a4c611a47611a42846113ab565b611a27565b6113ab565b9050919050565b6000611a5e82611a31565b9050919050565b6000611a7082611a53565b9050919050565b611a8081611a65565b82525050565b6000602082019050611a9b6000830184611a77565b92915050565b60008060008060608587031215611abb57611aba6112e6565b5b6000611ac9878288016113f4565b9450506020611ada8782880161142a565b935050604085013567ffffffffffffffff811115611afb57611afa6112eb565b5b611b078782880161144e565b925092505092959194509250565b60008060008060008060008060a0898b031215611b3557611b346112e6565b5b6000611b438b828c016113f4565b9850506020611b548b828c016113f4565b975050604089013567ffffffffffffffff811115611b7557611b746112eb565b5b611b818b828c0161183d565b9650965050606089013567ffffffffffffffff811115611ba457611ba36112eb565b5b611bb08b828c0161183d565b9450945050608089013567ffffffffffffffff811115611bd357611bd26112eb565b5b611bdf8b828c0161144e565b92509250509295985092959890939650565b60008060008060008060a08789031215611c0e57611c0d6112e6565b5b6000611c1c89828a016113f4565b9650506020611c2d89828a016113f4565b9550506040611c3e89828a0161142a565b9450506060611c4f89828a0161142a565b935050608087013567ffffffffffffffff811115611c7057611c6f6112eb565b5b611c7c89828a0161144e565b92509250509295509295509295565b6000606082019050611ca060008301866117bd565b611cad60208301856119fd565b611cba60408301846117bd565b949350505050565b600082825260208201905092915050565b7f6163636f756e743a206e6f74204f776e6572206f7220456e747279506f696e74600082015250565b6000611d09602083611cc2565b9150611d1482611cd3565b602082019050919050565b60006020820190508181036000830152611d3881611cfc565b9050919050565b7f77726f6e67206172726179206c656e6774687300000000000000000000000000600082015250565b6000611d75601383611cc2565b9150611d8082611d3f565b602082019050919050565b60006020820190508181036000830152611da481611d68565b9050919050565b7f4e487b7100000000000000000000000000000000000000000000000000000000600052603260045260246000fd5b600060208284031215611df057611def6112e6565b5b6000611dfe848285016113f4565b91505092915050565b600080fd5b600080fd5b600080fd5b60008083356001602003843603038112611e3357611e32611e07565b5b80840192508235915067ffffffffffffffff821115611e5557611e54611e0c565b5b602083019250600182023603831315611e7157611e70611e11565b5b509250929050565b600081519050611e88816113dd565b92915050565b600060208284031215611ea457611ea36112e6565b5b6000611eb284828501611e79565b91505092915050565b6000819050919050565b600077ffffffffffffffffffffffffffffffffffffffffffffffff82169050919050565b6000611f04611eff611efa84611ebb565b611a27565b611ec5565b9050919050565b611f1481611ee9565b82525050565b6000604082019050611f2f60008301856119fd565b611f3c6020830184611f0b565b9392505050565b600081519050611f5281611413565b92915050565b600060208284031215611f6e57611f6d6112e6565b5b6000611f7c84828501611f43565b91505092915050565b6000611f90826113ab565b9050919050565b611fa081611f85565b8114611fab57600080fd5b50565b600081519050611fbd81611f97565b92915050565b600080600060608486031215611fdc57611fdb6112e6565b5b6000611fea86828701611f43565b9350506020611ffb86828701611fae565b925050604061200c86828701611f43565b9150509250925092565b7f4e487b7100000000000000000000000000000000000000000000000000000000600052602160045260246000fd5b7f6163636f756e743a206e6f742066726f6d20456e747279506f696e7400000000600082015250565b600061207b601c83611cc2565b915061208682612045565b602082019050919050565b600060208201905081810360008301526120aa8161206e565b9050919050565b600081905092915050565b50565b60006120cc6000836120b1565b91506120d7826120bc565b600082019050919050565b60006120ed826120bf565b9150819050919050565b600081519050919050565b60005b83811015612120578082015181840152602081019050612105565b60008484015250505050565b6000612137826120f7565b61214181856120b1565b9350612151818560208601612102565b80840191505092915050565b6000612169828461212c565b915081905092915050565b7f4e487b7100000000000000000000000000000000000000000000000000000000600052601160045260246000fd5b60006121ae82611409565b91507fffffffffffffffffffffffffffffffffffffffffffffffffffffffffffffffff82036121e0576121df612174565b5b600182019050919050565b6121f481611556565b82525050565b600082825260208201905092915050565b6000612216826120f7565b61222081856121fa565b9350612230818560208601612102565b61223981611591565b840191505092915050565b600060408201905061225960008301856121eb565b818103602083015261226b818461220b565b90509392505050565b60008151905061228381611560565b92915050565b60006020828403121561229f5761229e6112e6565b5b60006122ad84828501612274565b91505092915050565b600060ff82169050919050565b6122cc816122b6565b82525050565b60006080820190506122e760008301876121eb565b6122f460208301866122c3565b61230160408301856121eb565b61230e60608301846121eb565b95945050505050565b600060208201905061232c60008301846121eb565b9291505056fea264697066735822122017c1e304b2eaadb7c1cede8295fc13fd2dacea6b17123d9831515f44973eef3064736f6c63430008180033",
  "linkReferences": {},
  "deployedLinkReferences": {}
}