{
  "_format": "hh-sol-artifact-1",
  "contractName": "EthDrive",
  "sourceName": "contracts/EthDrive.sol",
  "abi": [
    {
      "inputs": [
        {
          "internalType": "address",
          "name": "initialOwner",
          "type": "address"
        },
        {
          "internalType": "address",
          "name": "erc6551Registry_",
          "type": "address"
        },
        {
          "internalType": "address",
          "name": "accountImplementaton_",
          "type": "address"
        }
      ],
      "stateMutability": "nonpayable",
      "type": "constructor"
    },
    {
      "inputs": [
        {
          "internalType": "address",
          "name": "sender",
          "type": "address"
        },
        {
          "internalType": "uint256",
          "name": "tokenId",
          "type": "uint256"
        },
        {
          "internalType": "address",
          "name": "owner",
          "type": "address"
        }
      ],
      "name": "ERC721IncorrectOwner",
      "type": "error"
    },
    {
      "inputs": [
        {
          "internalType": "address",
          "name": "operator",
          "type": "address"
        },
        {
          "internalType": "uint256",
          "name": "tokenId",
          "type": "uint256"
        }
      ],
      "name": "ERC721InsufficientApproval",
      "type": "error"
    },
    {
      "inputs": [
        {
          "internalType": "address",
          "name": "approver",
          "type": "address"
        }
      ],
      "name": "ERC721InvalidApprover",
      "type": "error"
    },
    {
      "inputs": [
        {
          "internalType": "address",
          "name": "operator",
          "type": "address"
        }
      ],
      "name": "ERC721InvalidOperator",
      "type": "error"
    },
    {
      "inputs": [
        {
          "internalType": "address",
          "name": "owner",
          "type": "address"
        }
      ],
      "name": "ERC721InvalidOwner",
      "type": "error"
    },
    {
      "inputs": [
        {
          "internalType": "address",
          "name": "receiver",
          "type": "address"
        }
      ],
      "name": "ERC721InvalidReceiver",
      "type": "error"
    },
    {
      "inputs": [
        {
          "internalType": "address",
          "name": "sender",
          "type": "address"
        }
      ],
      "name": "ERC721InvalidSender",
      "type": "error"
    },
    {
      "inputs": [
        {
          "internalType": "uint256",
          "name": "tokenId",
          "type": "uint256"
        }
      ],
      "name": "ERC721NonexistentToken",
      "type": "error"
    },
    {
      "inputs": [
        {
          "internalType": "address",
          "name": "owner",
          "type": "address"
        }
      ],
      "name": "OwnableInvalidOwner",
      "type": "error"
    },
    {
      "inputs": [
        {
          "internalType": "address",
          "name": "account",
          "type": "address"
        }
      ],
      "name": "OwnableUnauthorizedAccount",
      "type": "error"
    },
    {
      "anonymous": false,
      "inputs": [
        {
          "indexed": true,
          "internalType": "address",
          "name": "owner",
          "type": "address"
        },
        {
          "indexed": true,
          "internalType": "address",
          "name": "approved",
          "type": "address"
        },
        {
          "indexed": true,
          "internalType": "uint256",
          "name": "tokenId",
          "type": "uint256"
        }
      ],
      "name": "Approval",
      "type": "event"
    },
    {
      "anonymous": false,
      "inputs": [
        {
          "indexed": true,
          "internalType": "address",
          "name": "owner",
          "type": "address"
        },
        {
          "indexed": true,
          "internalType": "address",
          "name": "operator",
          "type": "address"
        },
        {
          "indexed": false,
          "internalType": "bool",
          "name": "approved",
          "type": "bool"
        }
      ],
      "name": "ApprovalForAll",
      "type": "event"
    },
    {
      "anonymous": false,
      "inputs": [
        {
          "indexed": false,
          "internalType": "string",
          "name": "path",
          "type": "string"
        }
      ],
      "name": "CreateRegistry",
      "type": "event"
    },
    {
      "anonymous": false,
      "inputs": [
        {
          "indexed": true,
          "internalType": "address",
          "name": "previousOwner",
          "type": "address"
        },
        {
          "indexed": true,
          "internalType": "address",
          "name": "newOwner",
          "type": "address"
        }
      ],
      "name": "OwnershipTransferred",
      "type": "event"
    },
    {
      "anonymous": false,
      "inputs": [
        {
          "indexed": true,
          "internalType": "address",
          "name": "from",
          "type": "address"
        },
        {
          "indexed": true,
          "internalType": "address",
          "name": "to",
          "type": "address"
        },
        {
          "indexed": true,
          "internalType": "uint256",
          "name": "tokenId",
          "type": "uint256"
        }
      ],
      "name": "Transfer",
      "type": "event"
    },
    {
      "inputs": [],
      "name": "accountImplementaton",
      "outputs": [
        {
          "internalType": "address",
          "name": "",
          "type": "address"
        }
      ],
      "stateMutability": "view",
      "type": "function"
    },
    {
      "inputs": [
        {
          "internalType": "address",
          "name": "to",
          "type": "address"
        },
        {
          "internalType": "uint256",
          "name": "tokenId",
          "type": "uint256"
        }
      ],
      "name": "approve",
      "outputs": [],
      "stateMutability": "nonpayable",
      "type": "function"
    },
    {
      "inputs": [
        {
          "internalType": "address",
          "name": "owner",
          "type": "address"
        }
      ],
      "name": "balanceOf",
      "outputs": [
        {
          "internalType": "uint256",
          "name": "",
          "type": "uint256"
        }
      ],
      "stateMutability": "view",
      "type": "function"
    },
    {
      "inputs": [
        {
          "internalType": "string",
          "name": "path",
          "type": "string"
        }
      ],
      "name": "createDirectory",
      "outputs": [],
      "stateMutability": "nonpayable",
      "type": "function"
    },
    {
      "inputs": [
        {
          "internalType": "string[]",
          "name": "directoryStrings",
          "type": "string[]"
        }
      ],
      "name": "encodeDirectoryPath",
      "outputs": [
        {
          "internalType": "string",
          "name": "",
          "type": "string"
        }
      ],
      "stateMutability": "pure",
      "type": "function"
    },
    {
      "inputs": [],
      "name": "erc6551Registry",
      "outputs": [
        {
          "internalType": "address",
          "name": "",
          "type": "address"
        }
      ],
      "stateMutability": "view",
      "type": "function"
    },
    {
      "inputs": [
        {
          "internalType": "uint256",
          "name": "tokenId",
          "type": "uint256"
        }
      ],
      "name": "getApproved",
      "outputs": [
        {
          "internalType": "address",
          "name": "",
          "type": "address"
        }
      ],
      "stateMutability": "view",
      "type": "function"
    },
    {
      "inputs": [
        {
          "internalType": "uint256",
          "name": "tokenId",
          "type": "uint256"
        }
      ],
      "name": "getTokenBoundAccountFromTokenId",
      "outputs": [
        {
          "internalType": "address",
          "name": "",
          "type": "address"
        }
      ],
      "stateMutability": "view",
      "type": "function"
    },
    {
      "inputs": [
        {
          "internalType": "string",
          "name": "path",
          "type": "string"
        }
      ],
      "name": "getTokenIdFromPath",
      "outputs": [
        {
          "internalType": "uint256",
          "name": "",
          "type": "uint256"
        }
      ],
      "stateMutability": "pure",
      "type": "function"
    },
    {
      "inputs": [
        {
          "internalType": "address",
          "name": "owner",
          "type": "address"
        },
        {
          "internalType": "address",
          "name": "operator",
          "type": "address"
        }
      ],
      "name": "isApprovedForAll",
      "outputs": [
        {
          "internalType": "bool",
          "name": "",
          "type": "bool"
        }
      ],
      "stateMutability": "view",
      "type": "function"
    },
    {
      "inputs": [
        {
          "internalType": "string",
          "name": "",
          "type": "string"
        }
      ],
      "name": "isCreated",
      "outputs": [
        {
          "internalType": "bool",
          "name": "",
          "type": "bool"
        }
      ],
      "stateMutability": "view",
      "type": "function"
    },
    {
      "inputs": [],
      "name": "name",
      "outputs": [
        {
          "internalType": "string",
          "name": "",
          "type": "string"
        }
      ],
      "stateMutability": "view",
      "type": "function"
    },
    {
      "inputs": [],
      "name": "owner",
      "outputs": [
        {
          "internalType": "address",
          "name": "",
          "type": "address"
        }
      ],
      "stateMutability": "view",
      "type": "function"
    },
    {
      "inputs": [
        {
          "internalType": "uint256",
          "name": "tokenId",
          "type": "uint256"
        }
      ],
      "name": "ownerOf",
      "outputs": [
        {
          "internalType": "address",
          "name": "",
          "type": "address"
        }
      ],
      "stateMutability": "view",
      "type": "function"
    },
    {
      "inputs": [],
      "name": "renounceOwnership",
      "outputs": [],
      "stateMutability": "nonpayable",
      "type": "function"
    },
    {
      "inputs": [
        {
          "internalType": "address",
          "name": "from",
          "type": "address"
        },
        {
          "internalType": "address",
          "name": "to",
          "type": "address"
        },
        {
          "internalType": "uint256",
          "name": "tokenId",
          "type": "uint256"
        }
      ],
      "name": "safeTransferFrom",
      "outputs": [],
      "stateMutability": "nonpayable",
      "type": "function"
    },
    {
      "inputs": [
        {
          "internalType": "address",
          "name": "from",
          "type": "address"
        },
        {
          "internalType": "address",
          "name": "to",
          "type": "address"
        },
        {
          "internalType": "uint256",
          "name": "tokenId",
          "type": "uint256"
        },
        {
          "internalType": "bytes",
          "name": "data",
          "type": "bytes"
        }
      ],
      "name": "safeTransferFrom",
      "outputs": [],
      "stateMutability": "nonpayable",
      "type": "function"
    },
    {
      "inputs": [
        {
          "internalType": "address",
          "name": "operator",
          "type": "address"
        },
        {
          "internalType": "bool",
          "name": "approved",
          "type": "bool"
        }
      ],
      "name": "setApprovalForAll",
      "outputs": [],
      "stateMutability": "nonpayable",
      "type": "function"
    },
    {
      "inputs": [
        {
          "internalType": "bytes4",
          "name": "interfaceId",
          "type": "bytes4"
        }
      ],
      "name": "supportsInterface",
      "outputs": [
        {
          "internalType": "bool",
          "name": "",
          "type": "bool"
        }
      ],
      "stateMutability": "view",
      "type": "function"
    },
    {
      "inputs": [],
      "name": "symbol",
      "outputs": [
        {
          "internalType": "string",
          "name": "",
          "type": "string"
        }
      ],
      "stateMutability": "view",
      "type": "function"
    },
    {
      "inputs": [
        {
          "internalType": "uint256",
          "name": "tokenId",
          "type": "uint256"
        }
      ],
      "name": "tokenURI",
      "outputs": [
        {
          "internalType": "string",
          "name": "",
          "type": "string"
        }
      ],
      "stateMutability": "view",
      "type": "function"
    },
    {
      "inputs": [
        {
          "internalType": "address",
          "name": "from",
          "type": "address"
        },
        {
          "internalType": "address",
          "name": "to",
          "type": "address"
        },
        {
          "internalType": "uint256",
          "name": "tokenId",
          "type": "uint256"
        }
      ],
      "name": "transferFrom",
      "outputs": [],
      "stateMutability": "nonpayable",
      "type": "function"
    },
    {
      "inputs": [
        {
          "internalType": "address",
          "name": "newOwner",
          "type": "address"
        }
      ],
      "name": "transferOwnership",
      "outputs": [],
      "stateMutability": "nonpayable",
      "type": "function"
    }
  ],
  "bytecode": "0x60806040523480156200001157600080fd5b50604051620030b0380380620030b083398181016040528101906200003791906200030c565b826040518060400160405280600881526020017f45746844726976650000000000000000000000000000000000000000000000008152506040518060400160405280600481526020017f45445256000000000000000000000000000000000000000000000000000000008152508160009081620000b59190620005e2565b508060019081620000c79190620005e2565b505050600073ffffffffffffffffffffffffffffffffffffffff168173ffffffffffffffffffffffffffffffffffffffff16036200013f5760006040517f1e4fbdf7000000000000000000000000000000000000000000000000000000008152600401620001369190620006da565b60405180910390fd5b6200015081620001dc60201b60201c565b5081600860006101000a81548173ffffffffffffffffffffffffffffffffffffffff021916908373ffffffffffffffffffffffffffffffffffffffff16021790555080600960006101000a81548173ffffffffffffffffffffffffffffffffffffffff021916908373ffffffffffffffffffffffffffffffffffffffff160217905550505050620006f7565b6000600660009054906101000a900473ffffffffffffffffffffffffffffffffffffffff16905081600660006101000a81548173ffffffffffffffffffffffffffffffffffffffff021916908373ffffffffffffffffffffffffffffffffffffffff1602179055508173ffffffffffffffffffffffffffffffffffffffff168173ffffffffffffffffffffffffffffffffffffffff167f8be0079c531659141344cd1fd0a4f28419497f9722a3daafe3b4186f6b6457e060405160405180910390a35050565b600080fd5b600073ffffffffffffffffffffffffffffffffffffffff82169050919050565b6000620002d482620002a7565b9050919050565b620002e681620002c7565b8114620002f257600080fd5b50565b6000815190506200030681620002db565b92915050565b600080600060608486031215620003285762000327620002a2565b5b60006200033886828701620002f5565b93505060206200034b86828701620002f5565b92505060406200035e86828701620002f5565b9150509250925092565b600081519050919050565b7f4e487b7100000000000000000000000000000000000000000000000000000000600052604160045260246000fd5b7f4e487b7100000000000000000000000000000000000000000000000000000000600052602260045260246000fd5b60006002820490506001821680620003ea57607f821691505b6020821081036200040057620003ff620003a2565b5b50919050565b60008190508160005260206000209050919050565b60006020601f8301049050919050565b600082821b905092915050565b6000600883026200046a7fffffffffffffffffffffffffffffffffffffffffffffffffffffffffffffffff826200042b565b6200047686836200042b565b95508019841693508086168417925050509392505050565b6000819050919050565b6000819050919050565b6000620004c3620004bd620004b7846200048e565b62000498565b6200048e565b9050919050565b6000819050919050565b620004df83620004a2565b620004f7620004ee82620004ca565b84845462000438565b825550505050565b600090565b6200050e620004ff565b6200051b818484620004d4565b505050565b5b8181101562000543576200053760008262000504565b60018101905062000521565b5050565b601f82111562000592576200055c8162000406565b62000567846200041b565b8101602085101562000577578190505b6200058f62000586856200041b565b83018262000520565b50505b505050565b600082821c905092915050565b6000620005b76000198460080262000597565b1980831691505092915050565b6000620005d28383620005a4565b9150826002028217905092915050565b620005ed8262000368565b67ffffffffffffffff81111562000609576200060862000373565b5b620006158254620003d1565b6200062282828562000547565b600060209050601f8311600181146200065a576000841562000645578287015190505b620006518582620005c4565b865550620006c1565b601f1984166200066a8662000406565b60005b8281101562000694578489015182556001820191506020850194506020810190506200066d565b86831015620006b45784890151620006b0601f891682620005a4565b8355505b6001600288020188555050505b505050505050565b620006d481620002c7565b82525050565b6000602082019050620006f16000830184620006c9565b92915050565b6129a980620007076000396000f3fe608060405234801561001057600080fd5b506004361061014d5760003560e01c80636352211e116100c3578063a22cb4651161007c578063a22cb465146103b2578063b88d4fde146103ce578063c150873b146103ea578063c87b56dd1461041a578063e985e9c51461044a578063f2fde38b1461047a5761014d565b80636352211e146102dc57806370a082311461030c578063715018a61461033c578063770b1c11146103465780638da5cb5b1461037657806395d89b41146103945761014d565b8063095ea7b311610115578063095ea7b31461021e5780631c2556ad1461023a5780631c6ec7a91461026a57806323b872dd146102865780632c89462d146102a257806342842e0e146102c05761014d565b806301ffc9a714610152578063056d5afe1461018257806306fdde03146101a057806307669049146101be578063081812fc146101ee575b600080fd5b61016c60048036038101906101679190611d97565b610496565b6040516101799190611ddf565b60405180910390f35b61018a610578565b6040516101979190611e3b565b60405180910390f35b6101a861059e565b6040516101b59190611ee6565b60405180910390f35b6101d860048036038101906101d3919061203d565b610630565b6040516101e5919061209f565b60405180910390f35b610208600480360381019061020391906120e6565b610663565b6040516102159190611e3b565b60405180910390f35b6102386004803603810190610233919061213f565b61067f565b005b610254600480360381019061024f91906120e6565b610695565b6040516102619190611e3b565b60405180910390f35b610284600480360381019061027f919061203d565b610762565b005b6102a0600480360381019061029b919061217f565b61091e565b005b6102aa610a20565b6040516102b79190611e3b565b60405180910390f35b6102da60048036038101906102d5919061217f565b610a46565b005b6102f660048036038101906102f191906120e6565b610a66565b6040516103039190611e3b565b60405180910390f35b610326600480360381019061032191906121d2565b610a78565b604051610333919061209f565b60405180910390f35b610344610b32565b005b610360600480360381019061035b91906122e5565b610b46565b60405161036d9190611ee6565b60405180910390f35b61037e610bf5565b60405161038b9190611e3b565b60405180910390f35b61039c610c1f565b6040516103a99190611ee6565b60405180910390f35b6103cc60048036038101906103c7919061235a565b610cb1565b005b6103e860048036038101906103e3919061243b565b610cc7565b005b61040460048036038101906103ff919061203d565b610ce4565b6040516104119190611ddf565b60405180910390f35b610434600480360381019061042f91906120e6565b610d1a565b6040516104419190611ee6565b60405180910390f35b610464600480360381019061045f91906124be565b610d83565b6040516104719190611ddf565b60405180910390f35b610494600480360381019061048f91906121d2565b610e17565b005b60007f80ac58cd000000000000000000000000000000000000000000000000000000007bffffffffffffffffffffffffffffffffffffffffffffffffffffffff1916827bffffffffffffffffffffffffffffffffffffffffffffffffffffffff1916148061056157507f5b5e139f000000000000000000000000000000000000000000000000000000007bffffffffffffffffffffffffffffffffffffffffffffffffffffffff1916827bffffffffffffffffffffffffffffffffffffffffffffffffffffffff1916145b80610571575061057082610e9d565b5b9050919050565b600860009054906101000a900473ffffffffffffffffffffffffffffffffffffffff1681565b6060600080546105ad9061252d565b80601f01602080910402602001604051908101604052809291908181526020018280546105d99061252d565b80156106265780601f106105fb57610100808354040283529160200191610626565b820191906000526020600020905b81548152906001019060200180831161060957829003601f168201915b5050505050905090565b600081604051602001610643919061259a565b6040516020818303038152906040528051906020012060001c9050919050565b600061066e82610f07565b5061067882610f8f565b9050919050565b610691828261068c610fcc565b610fd4565b5050565b6000600860009054906101000a900473ffffffffffffffffffffffffffffffffffffffff1673ffffffffffffffffffffffffffffffffffffffff1663246a0021600960009054906101000a900473ffffffffffffffffffffffffffffffffffffffff164630866040518563ffffffff1660e01b815260040161071a94939291906125b8565b602060405180830381865afa158015610737573d6000803e3d6000fd5b505050506040513d601f19601f8201168201806040525081019061075b919061261e565b9050919050565b600061076d82610630565b905060078260405161077f919061259a565b908152602001604051809103902060009054906101000a900460ff16156107db576040517f08c379a00000000000000000000000000000000000000000000000000000000081526004016107d2906126bd565b60405180910390fd5b60016007836040516107ed919061259a565b908152602001604051809103902060006101000a81548160ff02191690831515021790555061081c3382610fe6565b600860009054906101000a900473ffffffffffffffffffffffffffffffffffffffff1673ffffffffffffffffffffffffffffffffffffffff16638a54c52f600960009054906101000a900473ffffffffffffffffffffffffffffffffffffffff164630856040518563ffffffff1660e01b815260040161089f94939291906125b8565b6020604051808303816000875af11580156108be573d6000803e3d6000fd5b505050506040513d601f19601f820116820180604052508101906108e2919061261e565b507f80d0934a9d29880c46ebf79764262195f79a1ae2582a5fbd3a9ff0483b301b6a826040516109129190611ee6565b60405180910390a15050565b600073ffffffffffffffffffffffffffffffffffffffff168273ffffffffffffffffffffffffffffffffffffffff16036109905760006040517f64a0ae920000000000000000000000000000000000000000000000000000000081526004016109879190611e3b565b60405180910390fd5b60006109a4838361099f610fcc565b6110df565b90508373ffffffffffffffffffffffffffffffffffffffff168173ffffffffffffffffffffffffffffffffffffffff1614610a1a578382826040517f64283d7b000000000000000000000000000000000000000000000000000000008152600401610a11939291906126dd565b60405180910390fd5b50505050565b600960009054906101000a900473ffffffffffffffffffffffffffffffffffffffff1681565b610a6183838360405180602001604052806000815250610cc7565b505050565b6000610a7182610f07565b9050919050565b60008073ffffffffffffffffffffffffffffffffffffffff168273ffffffffffffffffffffffffffffffffffffffff1603610aeb5760006040517f89c62b64000000000000000000000000000000000000000000000000000000008152600401610ae29190611e3b565b60405180910390fd5b600360008373ffffffffffffffffffffffffffffffffffffffff1673ffffffffffffffffffffffffffffffffffffffff168152602001908152602001600020549050919050565b610b3a6112f9565b610b446000611380565b565b6060600060405180602001604052806000815250905060005b8351811015610beb5781848281518110610b7c57610b7b612714565b5b6020026020010151604051602001610b95929190612743565b604051602081830303815290604052915060018451610bb49190612796565b811015610bde5781604051602001610bcc9190612816565b60405160208183030381529060405291505b8080600101915050610b5f565b5080915050919050565b6000600660009054906101000a900473ffffffffffffffffffffffffffffffffffffffff16905090565b606060018054610c2e9061252d565b80601f0160208091040260200160405190810160405280929190818152602001828054610c5a9061252d565b8015610ca75780601f10610c7c57610100808354040283529160200191610ca7565b820191906000526020600020905b815481529060010190602001808311610c8a57829003601f168201915b5050505050905090565b610cc3610cbc610fcc565b8383611446565b5050565b610cd284848461091e565b610cde848484846115b5565b50505050565b6007818051602081018201805184825260208301602085012081835280955050505050506000915054906101000a900460ff1681565b6060610d2582610f07565b506000610d3061176c565b90506000815111610d505760405180602001604052806000815250610d7b565b80610d5a84611783565b604051602001610d6b929190612743565b6040516020818303038152906040525b915050919050565b6000600560008473ffffffffffffffffffffffffffffffffffffffff1673ffffffffffffffffffffffffffffffffffffffff16815260200190815260200160002060008373ffffffffffffffffffffffffffffffffffffffff1673ffffffffffffffffffffffffffffffffffffffff16815260200190815260200160002060009054906101000a900460ff16905092915050565b610e1f6112f9565b600073ffffffffffffffffffffffffffffffffffffffff168173ffffffffffffffffffffffffffffffffffffffff1603610e915760006040517f1e4fbdf7000000000000000000000000000000000000000000000000000000008152600401610e889190611e3b565b60405180910390fd5b610e9a81611380565b50565b60007f01ffc9a7000000000000000000000000000000000000000000000000000000007bffffffffffffffffffffffffffffffffffffffffffffffffffffffff1916827bffffffffffffffffffffffffffffffffffffffffffffffffffffffff1916149050919050565b600080610f1383611851565b9050600073ffffffffffffffffffffffffffffffffffffffff168173ffffffffffffffffffffffffffffffffffffffff1603610f8657826040517f7e273289000000000000000000000000000000000000000000000000000000008152600401610f7d919061209f565b60405180910390fd5b80915050919050565b60006004600083815260200190815260200160002060009054906101000a900473ffffffffffffffffffffffffffffffffffffffff169050919050565b600033905090565b610fe1838383600161188e565b505050565b600073ffffffffffffffffffffffffffffffffffffffff168273ffffffffffffffffffffffffffffffffffffffff16036110585760006040517f64a0ae9200000000000000000000000000000000000000000000000000000000815260040161104f9190611e3b565b60405180910390fd5b6000611066838360006110df565b9050600073ffffffffffffffffffffffffffffffffffffffff168173ffffffffffffffffffffffffffffffffffffffff16146110da5760006040517f73c6ac6e0000000000000000000000000000000000000000000000000000000081526004016110d19190611e3b565b60405180910390fd5b505050565b6000806110eb84611851565b9050600073ffffffffffffffffffffffffffffffffffffffff168373ffffffffffffffffffffffffffffffffffffffff161461112d5761112c818486611a53565b5b600073ffffffffffffffffffffffffffffffffffffffff168173ffffffffffffffffffffffffffffffffffffffff16146111be5761116f60008560008061188e565b6001600360008373ffffffffffffffffffffffffffffffffffffffff1673ffffffffffffffffffffffffffffffffffffffff168152602001908152602001600020600082825403925050819055505b600073ffffffffffffffffffffffffffffffffffffffff168573ffffffffffffffffffffffffffffffffffffffff1614611241576001600360008773ffffffffffffffffffffffffffffffffffffffff1673ffffffffffffffffffffffffffffffffffffffff168152602001908152602001600020600082825401925050819055505b846002600086815260200190815260200160002060006101000a81548173ffffffffffffffffffffffffffffffffffffffff021916908373ffffffffffffffffffffffffffffffffffffffff160217905550838573ffffffffffffffffffffffffffffffffffffffff168273ffffffffffffffffffffffffffffffffffffffff167fddf252ad1be2c89b69c2b068fc378daa952ba7f163c4a11628f55a4df523b3ef60405160405180910390a4809150509392505050565b611301610fcc565b73ffffffffffffffffffffffffffffffffffffffff1661131f610bf5565b73ffffffffffffffffffffffffffffffffffffffff161461137e57611342610fcc565b6040517f118cdaa70000000000000000000000000000000000000000000000000000000081526004016113759190611e3b565b60405180910390fd5b565b6000600660009054906101000a900473ffffffffffffffffffffffffffffffffffffffff16905081600660006101000a81548173ffffffffffffffffffffffffffffffffffffffff021916908373ffffffffffffffffffffffffffffffffffffffff1602179055508173ffffffffffffffffffffffffffffffffffffffff168173ffffffffffffffffffffffffffffffffffffffff167f8be0079c531659141344cd1fd0a4f28419497f9722a3daafe3b4186f6b6457e060405160405180910390a35050565b600073ffffffffffffffffffffffffffffffffffffffff168273ffffffffffffffffffffffffffffffffffffffff16036114b757816040517f5b08ba180000000000000000000000000000000000000000000000000000000081526004016114ae9190611e3b565b60405180910390fd5b80600560008573ffffffffffffffffffffffffffffffffffffffff1673ffffffffffffffffffffffffffffffffffffffff16815260200190815260200160002060008473ffffffffffffffffffffffffffffffffffffffff1673ffffffffffffffffffffffffffffffffffffffff16815260200190815260200160002060006101000a81548160ff0219169083151502179055508173ffffffffffffffffffffffffffffffffffffffff168373ffffffffffffffffffffffffffffffffffffffff167f17307eab39ab6107e8899845ad3d59bd9653f200f220920489ca2b5937696c31836040516115a89190611ddf565b60405180910390a3505050565b60008373ffffffffffffffffffffffffffffffffffffffff163b1115611766578273ffffffffffffffffffffffffffffffffffffffff1663150b7a026115f9610fcc565b8685856040518563ffffffff1660e01b815260040161161b949392919061288d565b6020604051808303816000875af192505050801561165757506040513d601f19601f8201168201806040525081019061165491906128ee565b60015b6116db573d8060008114611687576040519150601f19603f3d011682016040523d82523d6000602084013e61168c565b606091505b5060008151036116d357836040517f64a0ae920000000000000000000000000000000000000000000000000000000081526004016116ca9190611e3b565b60405180910390fd5b805181602001fd5b63150b7a0260e01b7bffffffffffffffffffffffffffffffffffffffffffffffffffffffff1916817bffffffffffffffffffffffffffffffffffffffffffffffffffffffff19161461176457836040517f64a0ae9200000000000000000000000000000000000000000000000000000000815260040161175b9190611e3b565b60405180910390fd5b505b50505050565b606060405180602001604052806000815250905090565b60606000600161179284611b17565b01905060008167ffffffffffffffff8111156117b1576117b0611f12565b5b6040519080825280601f01601f1916602001820160405280156117e35781602001600182028036833780820191505090505b509050600082602001820190505b600115611846578080600190039150507f3031323334353637383961626364656600000000000000000000000000000000600a86061a8153600a858161183a5761183961291b565b5b049450600085036117f1575b819350505050919050565b60006002600083815260200190815260200160002060009054906101000a900473ffffffffffffffffffffffffffffffffffffffff169050919050565b80806118c75750600073ffffffffffffffffffffffffffffffffffffffff168273ffffffffffffffffffffffffffffffffffffffff1614155b156119fb5760006118d784610f07565b9050600073ffffffffffffffffffffffffffffffffffffffff168373ffffffffffffffffffffffffffffffffffffffff161415801561194257508273ffffffffffffffffffffffffffffffffffffffff168173ffffffffffffffffffffffffffffffffffffffff1614155b801561195557506119538184610d83565b155b1561199757826040517fa9fbf51f00000000000000000000000000000000000000000000000000000000815260040161198e9190611e3b565b60405180910390fd5b81156119f957838573ffffffffffffffffffffffffffffffffffffffff168273ffffffffffffffffffffffffffffffffffffffff167f8c5be1e5ebec7d5bd14f71427d1e84f3dd0314c0f7b2291e5b200ac8c7c3b92560405160405180910390a45b505b836004600085815260200190815260200160002060006101000a81548173ffffffffffffffffffffffffffffffffffffffff021916908373ffffffffffffffffffffffffffffffffffffffff16021790555050505050565b611a5e838383611c6a565b611b1257600073ffffffffffffffffffffffffffffffffffffffff168373ffffffffffffffffffffffffffffffffffffffff1603611ad357806040517f7e273289000000000000000000000000000000000000000000000000000000008152600401611aca919061209f565b60405180910390fd5b81816040517f177e802f000000000000000000000000000000000000000000000000000000008152600401611b0992919061294a565b60405180910390fd5b505050565b600080600090507a184f03e93ff9f4daa797ed6e38ed64bf6a1f0100000000000000008310611b75577a184f03e93ff9f4daa797ed6e38ed64bf6a1f0100000000000000008381611b6b57611b6a61291b565b5b0492506040810190505b6d04ee2d6d415b85acef81000000008310611bb2576d04ee2d6d415b85acef81000000008381611ba857611ba761291b565b5b0492506020810190505b662386f26fc100008310611be157662386f26fc100008381611bd757611bd661291b565b5b0492506010810190505b6305f5e1008310611c0a576305f5e1008381611c0057611bff61291b565b5b0492506008810190505b6127108310611c2f576127108381611c2557611c2461291b565b5b0492506004810190505b60648310611c525760648381611c4857611c4761291b565b5b0492506002810190505b600a8310611c61576001810190505b80915050919050565b60008073ffffffffffffffffffffffffffffffffffffffff168373ffffffffffffffffffffffffffffffffffffffff1614158015611d2257508273ffffffffffffffffffffffffffffffffffffffff168473ffffffffffffffffffffffffffffffffffffffff161480611ce35750611ce28484610d83565b5b80611d2157508273ffffffffffffffffffffffffffffffffffffffff16611d0983610f8f565b73ffffffffffffffffffffffffffffffffffffffff16145b5b90509392505050565b6000604051905090565b600080fd5b600080fd5b60007fffffffff0000000000000000000000000000000000000000000000000000000082169050919050565b611d7481611d3f565b8114611d7f57600080fd5b50565b600081359050611d9181611d6b565b92915050565b600060208284031215611dad57611dac611d35565b5b6000611dbb84828501611d82565b91505092915050565b60008115159050919050565b611dd981611dc4565b82525050565b6000602082019050611df46000830184611dd0565b92915050565b600073ffffffffffffffffffffffffffffffffffffffff82169050919050565b6000611e2582611dfa565b9050919050565b611e3581611e1a565b82525050565b6000602082019050611e506000830184611e2c565b92915050565b600081519050919050565b600082825260208201905092915050565b60005b83811015611e90578082015181840152602081019050611e75565b60008484015250505050565b6000601f19601f8301169050919050565b6000611eb882611e56565b611ec28185611e61565b9350611ed2818560208601611e72565b611edb81611e9c565b840191505092915050565b60006020820190508181036000830152611f008184611ead565b905092915050565b600080fd5b600080fd5b7f4e487b7100000000000000000000000000000000000000000000000000000000600052604160045260246000fd5b611f4a82611e9c565b810181811067ffffffffffffffff82111715611f6957611f68611f12565b5b80604052505050565b6000611f7c611d2b565b9050611f888282611f41565b919050565b600067ffffffffffffffff821115611fa857611fa7611f12565b5b611fb182611e9c565b9050602081019050919050565b82818337600083830152505050565b6000611fe0611fdb84611f8d565b611f72565b905082815260208101848484011115611ffc57611ffb611f0d565b5b612007848285611fbe565b509392505050565b600082601f83011261202457612023611f08565b5b8135612034848260208601611fcd565b91505092915050565b60006020828403121561205357612052611d35565b5b600082013567ffffffffffffffff81111561207157612070611d3a565b5b61207d8482850161200f565b91505092915050565b6000819050919050565b61209981612086565b82525050565b60006020820190506120b46000830184612090565b92915050565b6120c381612086565b81146120ce57600080fd5b50565b6000813590506120e0816120ba565b92915050565b6000602082840312156120fc576120fb611d35565b5b600061210a848285016120d1565b91505092915050565b61211c81611e1a565b811461212757600080fd5b50565b60008135905061213981612113565b92915050565b6000806040838503121561215657612155611d35565b5b60006121648582860161212a565b9250506020612175858286016120d1565b9150509250929050565b60008060006060848603121561219857612197611d35565b5b60006121a68682870161212a565b93505060206121b78682870161212a565b92505060406121c8868287016120d1565b9150509250925092565b6000602082840312156121e8576121e7611d35565b5b60006121f68482850161212a565b91505092915050565b600067ffffffffffffffff82111561221a57612219611f12565b5b602082029050602081019050919050565b600080fd5b600061224361223e846121ff565b611f72565b905080838252602082019050602084028301858111156122665761226561222b565b5b835b818110156122ad57803567ffffffffffffffff81111561228b5761228a611f08565b5b808601612298898261200f565b85526020850194505050602081019050612268565b5050509392505050565b600082601f8301126122cc576122cb611f08565b5b81356122dc848260208601612230565b91505092915050565b6000602082840312156122fb576122fa611d35565b5b600082013567ffffffffffffffff81111561231957612318611d3a565b5b612325848285016122b7565b91505092915050565b61233781611dc4565b811461234257600080fd5b50565b6000813590506123548161232e565b92915050565b6000806040838503121561237157612370611d35565b5b600061237f8582860161212a565b925050602061239085828601612345565b9150509250929050565b600067ffffffffffffffff8211156123b5576123b4611f12565b5b6123be82611e9c565b9050602081019050919050565b60006123de6123d98461239a565b611f72565b9050828152602081018484840111156123fa576123f9611f0d565b5b612405848285611fbe565b509392505050565b600082601f83011261242257612421611f08565b5b81356124328482602086016123cb565b91505092915050565b6000806000806080858703121561245557612454611d35565b5b60006124638782880161212a565b94505060206124748782880161212a565b9350506040612485878288016120d1565b925050606085013567ffffffffffffffff8111156124a6576124a5611d3a565b5b6124b28782880161240d565b91505092959194509250565b600080604083850312156124d5576124d4611d35565b5b60006124e38582860161212a565b92505060206124f48582860161212a565b9150509250929050565b7f4e487b7100000000000000000000000000000000000000000000000000000000600052602260045260246000fd5b6000600282049050600182168061254557607f821691505b602082108103612558576125576124fe565b5b50919050565b600081905092915050565b600061257482611e56565b61257e818561255e565b935061258e818560208601611e72565b80840191505092915050565b60006125a68284612569565b915081905092915050565b6000815250565b600060a0820190506125cd6000830187611e2c565b6125d9602083016125b1565b6125e66040830186612090565b6125f36060830185611e2c565b6126006080830184612090565b95945050505050565b60008151905061261881612113565b92915050565b60006020828403121561263457612633611d35565b5b600061264284828501612609565b91505092915050565b7f45746844726976653a204469726563746f727920616c7265616479206372656160008201527f7465640000000000000000000000000000000000000000000000000000000000602082015250565b60006126a7602383611e61565b91506126b28261264b565b604082019050919050565b600060208201905081810360008301526126d68161269a565b9050919050565b60006060820190506126f26000830186611e2c565b6126ff6020830185612090565b61270c6040830184611e2c565b949350505050565b7f4e487b7100000000000000000000000000000000000000000000000000000000600052603260045260246000fd5b600061274f8285612569565b915061275b8284612569565b91508190509392505050565b7f4e487b7100000000000000000000000000000000000000000000000000000000600052601160045260246000fd5b60006127a182612086565b91506127ac83612086565b92508282039050818111156127c4576127c3612767565b5b92915050565b7f2f00000000000000000000000000000000000000000000000000000000000000600082015250565b600061280060018361255e565b915061280b826127ca565b600182019050919050565b60006128228284612569565b915061282d826127f3565b915081905092915050565b600081519050919050565b600082825260208201905092915050565b600061285f82612838565b6128698185612843565b9350612879818560208601611e72565b61288281611e9c565b840191505092915050565b60006080820190506128a26000830187611e2c565b6128af6020830186611e2c565b6128bc6040830185612090565b81810360608301526128ce8184612854565b905095945050505050565b6000815190506128e881611d6b565b92915050565b60006020828403121561290457612903611d35565b5b6000612912848285016128d9565b91505092915050565b7f4e487b7100000000000000000000000000000000000000000000000000000000600052601260045260246000fd5b600060408201905061295f6000830185611e2c565b61296c6020830184612090565b939250505056fea2646970667358221220a3f22e75aceb5f8ab891e10a2e844bd01b32e41502912f9ff91e1a9fb8972dc064736f6c63430008180033",
  "linkReferences": {},
  "deployedLinkReferences": {}
}