{
  "contracts/EthDriveAccount.sol": {
    "EthDriveAccount": {
      "abi": [
        {
          "inputs": [
            {
              "internalType": "contract IEntryPoint",
              "name": "anEntryPoint",
              "type": "address"
            }
          ],
          "stateMutability": "nonpayable",
          "type": "constructor"
        },
        {
          "inputs": [],
          "name": "ECDSAInvalidSignature",
          "type": "error"
        },
        {
          "inputs": [
            {
              "internalType": "uint256",
              "name": "length",
              "type": "uint256"
            }
          ],
          "name": "ECDSAInvalidSignatureLength",
          "type": "error"
        },
        {
          "inputs": [
            {
              "internalType": "bytes32",
              "name": "s",
              "type": "bytes32"
            }
          ],
          "name": "ECDSAInvalidSignatureS",
          "type": "error"
        },
        {
          "inputs": [],
          "name": "entryPoint",
          "outputs": [
            {
              "internalType": "contract IEntryPoint",
              "name": "",
              "type": "address"
            }
          ],
          "stateMutability": "view",
          "type": "function"
        },
        {
          "inputs": [
            {
              "internalType": "address",
              "name": "to",
              "type": "address"
            },
            {
              "internalType": "uint256",
              "name": "value",
              "type": "uint256"
            },
            {
              "internalType": "bytes",
              "name": "data",
              "type": "bytes"
            }
          ],
          "name": "execute",
          "outputs": [],
          "stateMutability": "nonpayable",
          "type": "function"
        },
        {
          "inputs": [
            {
              "internalType": "address[]",
              "name": "to",
              "type": "address[]"
            },
            {
              "internalType": "uint256[]",
              "name": "value",
              "type": "uint256[]"
            },
            {
              "internalType": "bytes[]",
              "name": "data",
              "type": "bytes[]"
            }
          ],
          "name": "executeBatch",
          "outputs": [],
          "stateMutability": "nonpayable",
          "type": "function"
        },
        {
          "inputs": [],
          "name": "getNonce",
          "outputs": [
            {
              "internalType": "uint256",
              "name": "",
              "type": "uint256"
            }
          ],
          "stateMutability": "view",
          "type": "function"
        },
        {
          "inputs": [
            {
              "internalType": "bytes32",
              "name": "hash",
              "type": "bytes32"
            },
            {
              "internalType": "bytes",
              "name": "signature",
              "type": "bytes"
            }
          ],
          "name": "isValidSignature",
          "outputs": [
            {
              "internalType": "bytes4",
              "name": "magicValue",
              "type": "bytes4"
            }
          ],
          "stateMutability": "view",
          "type": "function"
        },
        {
          "inputs": [
            {
              "internalType": "address",
              "name": "signer",
              "type": "address"
            },
            {
              "internalType": "bytes",
              "name": "",
              "type": "bytes"
            }
          ],
          "name": "isValidSigner",
          "outputs": [
            {
              "internalType": "bytes4",
              "name": "",
              "type": "bytes4"
            }
          ],
          "stateMutability": "view",
          "type": "function"
        },
        {
          "inputs": [
            {
              "internalType": "address",
              "name": "",
              "type": "address"
            },
            {
              "internalType": "address",
              "name": "",
              "type": "address"
            },
            {
              "internalType": "uint256[]",
              "name": "",
              "type": "uint256[]"
            },
            {
              "internalType": "uint256[]",
              "name": "",
              "type": "uint256[]"
            },
            {
              "internalType": "bytes",
              "name": "",
              "type": "bytes"
            }
          ],
          "name": "onERC1155BatchReceived",
          "outputs": [
            {
              "internalType": "bytes4",
              "name": "",
              "type": "bytes4"
            }
          ],
          "stateMutability": "pure",
          "type": "function"
        },
        {
          "inputs": [
            {
              "internalType": "address",
              "name": "",
              "type": "address"
            },
            {
              "internalType": "address",
              "name": "",
              "type": "address"
            },
            {
              "internalType": "uint256",
              "name": "",
              "type": "uint256"
            },
            {
              "internalType": "uint256",
              "name": "",
              "type": "uint256"
            },
            {
              "internalType": "bytes",
              "name": "",
              "type": "bytes"
            }
          ],
          "name": "onERC1155Received",
          "outputs": [
            {
              "internalType": "bytes4",
              "name": "",
              "type": "bytes4"
            }
          ],
          "stateMutability": "pure",
          "type": "function"
        },
        {
          "inputs": [
            {
              "internalType": "address",
              "name": "",
              "type": "address"
            },
            {
              "internalType": "address",
              "name": "",
              "type": "address"
            },
            {
              "internalType": "uint256",
              "name": "",
              "type": "uint256"
            },
            {
              "internalType": "bytes",
              "name": "",
              "type": "bytes"
            }
          ],
          "name": "onERC721Received",
          "outputs": [
            {
              "internalType": "bytes4",
              "name": "",
              "type": "bytes4"
            }
          ],
          "stateMutability": "pure",
          "type": "function"
        },
        {
          "inputs": [],
          "name": "owner",
          "outputs": [
            {
              "internalType": "address",
              "name": "",
              "type": "address"
            }
          ],
          "stateMutability": "view",
          "type": "function"
        },
        {
          "inputs": [],
          "name": "state",
          "outputs": [
            {
              "internalType": "uint256",
              "name": "",
              "type": "uint256"
            }
          ],
          "stateMutability": "view",
          "type": "function"
        },
        {
          "inputs": [
            {
              "internalType": "bytes4",
              "name": "interfaceId",
              "type": "bytes4"
            }
          ],
          "name": "supportsInterface",
          "outputs": [
            {
              "internalType": "bool",
              "name": "",
              "type": "bool"
            }
          ],
          "stateMutability": "view",
          "type": "function"
        },
        {
          "inputs": [],
          "name": "token",
          "outputs": [
            {
              "internalType": "uint256",
              "name": "",
              "type": "uint256"
            },
            {
              "internalType": "address",
              "name": "",
              "type": "address"
            },
            {
              "internalType": "uint256",
              "name": "",
              "type": "uint256"
            }
          ],
          "stateMutability": "view",
          "type": "function"
        },
        {
          "inputs": [
            {
              "components": [
                {
                  "internalType": "address",
                  "name": "sender",
                  "type": "address"
                },
                {
                  "internalType": "uint256",
                  "name": "nonce",
                  "type": "uint256"
                },
                {
                  "internalType": "bytes",
                  "name": "initCode",
                  "type": "bytes"
                },
                {
                  "internalType": "bytes",
                  "name": "callData",
                  "type": "bytes"
                },
                {
                  "internalType": "bytes32",
                  "name": "accountGasLimits",
                  "type": "bytes32"
                },
                {
                  "internalType": "uint256",
                  "name": "preVerificationGas",
                  "type": "uint256"
                },
                {
                  "internalType": "bytes32",
                  "name": "gasFees",
                  "type": "bytes32"
                },
                {
                  "internalType": "bytes",
                  "name": "paymasterAndData",
                  "type": "bytes"
                },
                {
                  "internalType": "bytes",
                  "name": "signature",
                  "type": "bytes"
                }
              ],
              "internalType": "struct PackedUserOperation",
              "name": "userOp",
              "type": "tuple"
            },
            {
              "internalType": "bytes32",
              "name": "userOpHash",
              "type": "bytes32"
            },
            {
              "internalType": "uint256",
              "name": "missingAccountFunds",
              "type": "uint256"
            }
          ],
          "name": "validateUserOp",
          "outputs": [
            {
              "internalType": "uint256",
              "name": "validationData",
              "type": "uint256"
            }
          ],
          "stateMutability": "nonpayable",
          "type": "function"
        },
        {
          "stateMutability": "payable",
          "type": "receive"
        }
      ],
      "evm": {
        "bytecode": {
          "linkReferences": {},
          "object": "60a06040523480156200001157600080fd5b50604051620024a6380380620024a68339818101604052810190620000379190620000f0565b8073ffffffffffffffffffffffffffffffffffffffff1660808173ffffffffffffffffffffffffffffffffffffffff16815250505062000122565b600080fd5b600073ffffffffffffffffffffffffffffffffffffffff82169050919050565b6000620000a48262000077565b9050919050565b6000620000b88262000097565b9050919050565b620000ca81620000ab565b8114620000d657600080fd5b50565b600081519050620000ea81620000bf565b92915050565b60006020828403121562000109576200010862000072565b5b60006200011984828501620000d9565b91505092915050565b6080516123686200013e600039600061093a01526123686000f3fe6080604052600436106100e15760003560e01c8063b0d691fe1161007f578063c19d93fb11610059578063c19d93fb14610303578063d087d2881461032e578063f23a6e6114610359578063fc0c546a14610396576100e8565b8063b0d691fe14610272578063b61d27f61461029d578063bc197c81146102c6576100e8565b806319822f7c116100bb57806319822f7c146101a457806347e1da2a146101e1578063523e32601461020a5780638da5cb5b14610247576100e8565b806301ffc9a7146100ed578063150b7a021461012a5780631626ba7e14610167576100e8565b366100e857005b600080fd5b3480156100f957600080fd5b50610114600480360381019061010f9190611348565b6103c3565b6040516101219190611390565b60405180910390f35b34801561013657600080fd5b50610151600480360381019061014c91906114a4565b6105cd565b60405161015e919061153b565b60405180910390f35b34801561017357600080fd5b5061018e600480360381019061018991906116cd565b6105e2565b60405161019b919061153b565b60405180910390f35b3480156101b057600080fd5b506101cb60048036038101906101c6919061174e565b61061e565b6040516101d891906117cc565b60405180910390f35b3480156101ed57600080fd5b50610208600480360381019061020391906118e9565b610651565b005b34801561021657600080fd5b50610231600480360381019061022c919061199d565b610832565b60405161023e919061153b565b60405180910390f35b34801561025357600080fd5b5061025c61088c565b6040516102699190611a0c565b60405180910390f35b34801561027e57600080fd5b50610287610936565b6040516102949190611a86565b60405180910390f35b3480156102a957600080fd5b506102c460048036038101906102bf9190611aa1565b61095e565b005b3480156102d257600080fd5b506102ed60048036038101906102e89190611b15565b610a65565b6040516102fa919061153b565b60405180910390f35b34801561030f57600080fd5b50610318610a7d565b60405161032591906117cc565b60405180910390f35b34801561033a57600080fd5b50610343610a86565b60405161035091906117cc565b60405180910390f35b34801561036557600080fd5b50610380600480360381019061037b9190611bf1565b610b11565b60405161038d919061153b565b60405180910390f35b3480156103a257600080fd5b506103ab610b27565b6040516103ba93929190611c8b565b60405180910390f35b60007f01ffc9a7000000000000000000000000000000000000000000000000000000007bffffffffffffffffffffffffffffffffffffffffffffffffffffffff1916827bffffffffffffffffffffffffffffffffffffffffffffffffffffffff1916148061048e57507f150b7a02000000000000000000000000000000000000000000000000000000007bffffffffffffffffffffffffffffffffffffffffffffffffffffffff1916827bffffffffffffffffffffffffffffffffffffffffffffffffffffffff1916145b806104f657507f4e2312e0000000000000000000000000000000000000000000000000000000007bffffffffffffffffffffffffffffffffffffffffffffffffffffffff1916827bffffffffffffffffffffffffffffffffffffffffffffffffffffffff1916145b8061055e57507f1626ba7e000000000000000000000000000000000000000000000000000000007bffffffffffffffffffffffffffffffffffffffffffffffffffffffff1916827bffffffffffffffffffffffffffffffffffffffffffffffffffffffff1916145b806105c657507f6faff5f1000000000000000000000000000000000000000000000000000000007bffffffffffffffffffffffffffffffffffffffffffffffffffffffff1916827bffffffffffffffffffffffffffffffffffffffffffffffffffffffff1916145b9050919050565b600063150b7a0260e01b905095945050505050565b6000806105f76105f061088c565b8585610ba7565b9050801561060f57631626ba7e60e01b915050610618565b600060e01b9150505b92915050565b6000610628610c37565b6106328484610cae565b90506106418460200135610d68565b61064a82610d6b565b9392505050565b610659610936565b73ffffffffffffffffffffffffffffffffffffffff163373ffffffffffffffffffffffffffffffffffffffff1614806106c4575061069561088c565b73ffffffffffffffffffffffffffffffffffffffff163373ffffffffffffffffffffffffffffffffffffffff16145b610703576040517f08c379a00000000000000000000000000000000000000000000000000000000081526004016106fa90611d1f565b60405180910390fd5b818190508686905014801561071d57508181905084849050145b61075c576040517f08c379a000000000000000000000000000000000000000000000000000000000815260040161075390611d8b565b60405180910390fd5b60005b828290508110156108295761081c8787838181106107805761077f611dab565b5b90506020020160208101906107959190611dda565b8686848181106107a8576107a7611dab565b5b905060200201358585858181106107c2576107c1611dab565b5b90506020028101906107d49190611e16565b8080601f016020809104026020016040519081016040528093929190818152602001838380828437600081840152601f19601f82011690508083019250505050505050610e07565b808060010191505061075f565b50505050505050565b600061083c61088c565b73ffffffffffffffffffffffffffffffffffffffff168473ffffffffffffffffffffffffffffffffffffffff160361087d5763523e326060e01b9050610885565b600060e01b90505b9392505050565b60008060008061089a610b27565b9250925092504683146108b35760009350505050610933565b8173ffffffffffffffffffffffffffffffffffffffff16636352211e826040518263ffffffff1660e01b81526004016108ec91906117cc565b602060405180830381865afa158015610909573d6000803e3d6000fd5b505050506040513d601f19601f8201168201806040525081019061092d9190611e8e565b93505050505b90565b60007f0000000000000000000000000000000000000000000000000000000000000000905090565b610966610936565b73ffffffffffffffffffffffffffffffffffffffff163373ffffffffffffffffffffffffffffffffffffffff1614806109d157506109a261088c565b73ffffffffffffffffffffffffffffffffffffffff163373ffffffffffffffffffffffffffffffffffffffff16145b610a10576040517f08c379a0000000000000000000000000000000000000000000000000000000008152600401610a0790611d1f565b60405180910390fd5b610a5f848484848080601f016020809104026020016040519081016040528093929190818152602001838380828437600081840152601f19601f82011690508083019250505050505050610e07565b50505050565b600063bc197c8160e01b905098975050505050505050565b60008054905090565b6000610a90610936565b73ffffffffffffffffffffffffffffffffffffffff166335567e1a3060006040518363ffffffff1660e01b8152600401610acb929190611f1a565b602060405180830381865afa158015610ae8573d6000803e3d6000fd5b505050506040513d601f19601f82011682018060405250810190610b0c9190611f58565b905090565b600063f23a6e6160e01b90509695505050505050565b600080600080606067ffffffffffffffff811115610b4857610b476115a2565b5b6040519080825280601f01601f191660200182016040528015610b7a5781602001600182028036833780820191505090505b5090506060604d60208301303c80806020019051810190610b9b9190611fc3565b93509350935050909192565b6000806000610bb68585610ea2565b509150915060006003811115610bcf57610bce612016565b5b816003811115610be257610be1612016565b5b148015610c1a57508573ffffffffffffffffffffffffffffffffffffffff168273ffffffffffffffffffffffffffffffffffffffff16145b80610c2c5750610c2b868686610efe565b5b925050509392505050565b610c3f610936565b73ffffffffffffffffffffffffffffffffffffffff163373ffffffffffffffffffffffffffffffffffffffff1614610cac576040517f08c379a0000000000000000000000000000000000000000000000000000000008152600401610ca390612091565b60405180910390fd5b565b600080610cba83611022565b9050610d198185806101000190610cd19190611e16565b8080601f016020809104026020016040519081016040528093929190818152602001838380828437600081840152601f19601f82011690508083019250505050505050611058565b73ffffffffffffffffffffffffffffffffffffffff16610d3761088c565b73ffffffffffffffffffffffffffffffffffffffff1614610d5c576001915050610d62565b60009150505b92915050565b50565b60008114610e045760003373ffffffffffffffffffffffffffffffffffffffff16827fffffffffffffffffffffffffffffffffffffffffffffffffffffffffffffffff90604051610dbb906120e2565b600060405180830381858888f193505050503d8060008114610df9576040519150601f19603f3d011682016040523d82523d6000602084013e610dfe565b606091505b50509050505b50565b6000808473ffffffffffffffffffffffffffffffffffffffff168484604051610e30919061215d565b60006040518083038185875af1925050503d8060008114610e6d576040519150601f19603f3d011682016040523d82523d6000602084013e610e72565b606091505b509150915081610e8457805160208201fd5b600080815480929190610e96906121a3565b91905055505050505050565b60008060006041845103610ee75760008060006020870151925060408701519150606087015160001a9050610ed988828585611084565b955095509550505050610ef7565b60006002855160001b9250925092505b9250925092565b60008060008573ffffffffffffffffffffffffffffffffffffffff168585604051602401610f2d929190612244565b604051602081830303815290604052631626ba7e60e01b6020820180517bffffffffffffffffffffffffffffffffffffffffffffffffffffffff8381831617835250505050604051610f7f919061215d565b600060405180830381855afa9150503d8060008114610fba576040519150601f19603f3d011682016040523d82523d6000602084013e610fbf565b606091505b5091509150818015610fd357506020815110155b80156110175750631626ba7e60e01b7bffffffffffffffffffffffffffffffffffffffffffffffffffffffff1916818060200190518101906110159190612289565b145b925050509392505050565b60007f19457468657265756d205369676e6564204d6573736167653a0a33320000000060005281601c52603c6000209050919050565b6000806000806110688686610ea2565b9250925092506110788282611178565b82935050505092915050565b60008060007f7fffffffffffffffffffffffffffffff5d576e7357a4501ddfe92f46681b20a08460001c11156110c457600060038592509250925061116e565b6000600188888888604051600081526020016040526040516110e994939291906122d2565b6020604051602081039080840390855afa15801561110b573d6000803e3d6000fd5b505050602060405103519050600073ffffffffffffffffffffffffffffffffffffffff168173ffffffffffffffffffffffffffffffffffffffff160361115f57600060016000801b9350935093505061116e565b8060008060001b935093509350505b9450945094915050565b6000600381111561118c5761118b612016565b5b82600381111561119f5761119e612016565b5b03156112d857600160038111156111b9576111b8612016565b5b8260038111156111cc576111cb612016565b5b03611203576040517ff645eedf00000000000000000000000000000000000000000000000000000000815260040160405180910390fd5b6002600381111561121757611216612016565b5b82600381111561122a57611229612016565b5b0361126f578060001c6040517ffce698f700000000000000000000000000000000000000000000000000000000815260040161126691906117cc565b60405180910390fd5b60038081111561128257611281612016565b5b82600381111561129557611294612016565b5b036112d757806040517fd78bce0c0000000000000000000000000000000000000000000000000000000081526004016112ce9190612317565b60405180910390fd5b5b5050565b6000604051905090565b600080fd5b600080fd5b60007fffffffff0000000000000000000000000000000000000000000000000000000082169050919050565b611325816112f0565b811461133057600080fd5b50565b6000813590506113428161131c565b92915050565b60006020828403121561135e5761135d6112e6565b5b600061136c84828501611333565b91505092915050565b60008115159050919050565b61138a81611375565b82525050565b60006020820190506113a56000830184611381565b92915050565b600073ffffffffffffffffffffffffffffffffffffffff82169050919050565b60006113d6826113ab565b9050919050565b6113e6816113cb565b81146113f157600080fd5b50565b600081359050611403816113dd565b92915050565b6000819050919050565b61141c81611409565b811461142757600080fd5b50565b60008135905061143981611413565b92915050565b600080fd5b600080fd5b600080fd5b60008083601f8401126114645761146361143f565b5b8235905067ffffffffffffffff81111561148157611480611444565b5b60208301915083600182028301111561149d5761149c611449565b5b9250929050565b6000806000806000608086880312156114c0576114bf6112e6565b5b60006114ce888289016113f4565b95505060206114df888289016113f4565b94505060406114f08882890161142a565b935050606086013567ffffffffffffffff811115611511576115106112eb565b5b61151d8882890161144e565b92509250509295509295909350565b611535816112f0565b82525050565b6000602082019050611550600083018461152c565b92915050565b6000819050919050565b61156981611556565b811461157457600080fd5b50565b60008135905061158681611560565b92915050565b600080fd5b6000601f19601f8301169050919050565b7f4e487b7100000000000000000000000000000000000000000000000000000000600052604160045260246000fd5b6115da82611591565b810181811067ffffffffffffffff821117156115f9576115f86115a2565b5b80604052505050565b600061160c6112dc565b905061161882826115d1565b919050565b600067ffffffffffffffff821115611638576116376115a2565b5b61164182611591565b9050602081019050919050565b82818337600083830152505050565b600061167061166b8461161d565b611602565b90508281526020810184848401111561168c5761168b61158c565b5b61169784828561164e565b509392505050565b600082601f8301126116b4576116b361143f565b5b81356116c484826020860161165d565b91505092915050565b600080604083850312156116e4576116e36112e6565b5b60006116f285828601611577565b925050602083013567ffffffffffffffff811115611713576117126112eb565b5b61171f8582860161169f565b9150509250929050565b600080fd5b6000610120828403121561174557611744611729565b5b81905092915050565b600080600060608486031215611767576117666112e6565b5b600084013567ffffffffffffffff811115611785576117846112eb565b5b6117918682870161172e565b93505060206117a286828701611577565b92505060406117b38682870161142a565b9150509250925092565b6117c681611409565b82525050565b60006020820190506117e160008301846117bd565b92915050565b60008083601f8401126117fd576117fc61143f565b5b8235905067ffffffffffffffff81111561181a57611819611444565b5b60208301915083602082028301111561183657611835611449565b5b9250929050565b60008083601f8401126118535761185261143f565b5b8235905067ffffffffffffffff8111156118705761186f611444565b5b60208301915083602082028301111561188c5761188b611449565b5b9250929050565b60008083601f8401126118a9576118a861143f565b5b8235905067ffffffffffffffff8111156118c6576118c5611444565b5b6020830191508360208202830111156118e2576118e1611449565b5b9250929050565b60008060008060008060608789031215611906576119056112e6565b5b600087013567ffffffffffffffff811115611924576119236112eb565b5b61193089828a016117e7565b9650965050602087013567ffffffffffffffff811115611953576119526112eb565b5b61195f89828a0161183d565b9450945050604087013567ffffffffffffffff811115611982576119816112eb565b5b61198e89828a01611893565b92509250509295509295509295565b6000806000604084860312156119b6576119b56112e6565b5b60006119c4868287016113f4565b935050602084013567ffffffffffffffff8111156119e5576119e46112eb565b5b6119f18682870161144e565b92509250509250925092565b611a06816113cb565b82525050565b6000602082019050611a2160008301846119fd565b92915050565b6000819050919050565b6000611a4c611a47611a42846113ab565b611a27565b6113ab565b9050919050565b6000611a5e82611a31565b9050919050565b6000611a7082611a53565b9050919050565b611a8081611a65565b82525050565b6000602082019050611a9b6000830184611a77565b92915050565b60008060008060608587031215611abb57611aba6112e6565b5b6000611ac9878288016113f4565b9450506020611ada8782880161142a565b935050604085013567ffffffffffffffff811115611afb57611afa6112eb565b5b611b078782880161144e565b925092505092959194509250565b60008060008060008060008060a0898b031215611b3557611b346112e6565b5b6000611b438b828c016113f4565b9850506020611b548b828c016113f4565b975050604089013567ffffffffffffffff811115611b7557611b746112eb565b5b611b818b828c0161183d565b9650965050606089013567ffffffffffffffff811115611ba457611ba36112eb565b5b611bb08b828c0161183d565b9450945050608089013567ffffffffffffffff811115611bd357611bd26112eb565b5b611bdf8b828c0161144e565b92509250509295985092959890939650565b60008060008060008060a08789031215611c0e57611c0d6112e6565b5b6000611c1c89828a016113f4565b9650506020611c2d89828a016113f4565b9550506040611c3e89828a0161142a565b9450506060611c4f89828a0161142a565b935050608087013567ffffffffffffffff811115611c7057611c6f6112eb565b5b611c7c89828a0161144e565b92509250509295509295509295565b6000606082019050611ca060008301866117bd565b611cad60208301856119fd565b611cba60408301846117bd565b949350505050565b600082825260208201905092915050565b7f6163636f756e743a206e6f74204f776e6572206f7220456e747279506f696e74600082015250565b6000611d09602083611cc2565b9150611d1482611cd3565b602082019050919050565b60006020820190508181036000830152611d3881611cfc565b9050919050565b7f77726f6e67206172726179206c656e6774687300000000000000000000000000600082015250565b6000611d75601383611cc2565b9150611d8082611d3f565b602082019050919050565b60006020820190508181036000830152611da481611d68565b9050919050565b7f4e487b7100000000000000000000000000000000000000000000000000000000600052603260045260246000fd5b600060208284031215611df057611def6112e6565b5b6000611dfe848285016113f4565b91505092915050565b600080fd5b600080fd5b600080fd5b60008083356001602003843603038112611e3357611e32611e07565b5b80840192508235915067ffffffffffffffff821115611e5557611e54611e0c565b5b602083019250600182023603831315611e7157611e70611e11565b5b509250929050565b600081519050611e88816113dd565b92915050565b600060208284031215611ea457611ea36112e6565b5b6000611eb284828501611e79565b91505092915050565b6000819050919050565b600077ffffffffffffffffffffffffffffffffffffffffffffffff82169050919050565b6000611f04611eff611efa84611ebb565b611a27565b611ec5565b9050919050565b611f1481611ee9565b82525050565b6000604082019050611f2f60008301856119fd565b611f3c6020830184611f0b565b9392505050565b600081519050611f5281611413565b92915050565b600060208284031215611f6e57611f6d6112e6565b5b6000611f7c84828501611f43565b91505092915050565b6000611f90826113ab565b9050919050565b611fa081611f85565b8114611fab57600080fd5b50565b600081519050611fbd81611f97565b92915050565b600080600060608486031215611fdc57611fdb6112e6565b5b6000611fea86828701611f43565b9350506020611ffb86828701611fae565b925050604061200c86828701611f43565b9150509250925092565b7f4e487b7100000000000000000000000000000000000000000000000000000000600052602160045260246000fd5b7f6163636f756e743a206e6f742066726f6d20456e747279506f696e7400000000600082015250565b600061207b601c83611cc2565b915061208682612045565b602082019050919050565b600060208201905081810360008301526120aa8161206e565b9050919050565b600081905092915050565b50565b60006120cc6000836120b1565b91506120d7826120bc565b600082019050919050565b60006120ed826120bf565b9150819050919050565b600081519050919050565b60005b83811015612120578082015181840152602081019050612105565b60008484015250505050565b6000612137826120f7565b61214181856120b1565b9350612151818560208601612102565b80840191505092915050565b6000612169828461212c565b915081905092915050565b7f4e487b7100000000000000000000000000000000000000000000000000000000600052601160045260246000fd5b60006121ae82611409565b91507fffffffffffffffffffffffffffffffffffffffffffffffffffffffffffffffff82036121e0576121df612174565b5b600182019050919050565b6121f481611556565b82525050565b600082825260208201905092915050565b6000612216826120f7565b61222081856121fa565b9350612230818560208601612102565b61223981611591565b840191505092915050565b600060408201905061225960008301856121eb565b818103602083015261226b818461220b565b90509392505050565b60008151905061228381611560565b92915050565b60006020828403121561229f5761229e6112e6565b5b60006122ad84828501612274565b91505092915050565b600060ff82169050919050565b6122cc816122b6565b82525050565b60006080820190506122e760008301876121eb565b6122f460208301866122c3565b61230160408301856121eb565b61230e60608301846121eb565b95945050505050565b600060208201905061232c60008301846121eb565b9291505056fea264697066735822122017c1e304b2eaadb7c1cede8295fc13fd2dacea6b17123d9831515f44973eef3064736f6c63430008180033",
          "opcodes": "PUSH1 0xA0 PUSH1 0x40 MSTORE CALLVALUE DUP1 ISZERO PUSH3 0x11 JUMPI PUSH1 0x0 DUP1 REVERT JUMPDEST POP PUSH1 0x40 MLOAD PUSH3 0x24A6 CODESIZE SUB DUP1 PUSH3 0x24A6 DUP4 CODECOPY DUP2 DUP2 ADD PUSH1 0x40 MSTORE DUP2 ADD SWAP1 PUSH3 0x37 SWAP2 SWAP1 PUSH3 0xF0 JUMP JUMPDEST DUP1 PUSH20 0xFFFFFFFFFFFFFFFFFFFFFFFFFFFFFFFFFFFFFFFF AND PUSH1 0x80 DUP2 PUSH20 0xFFFFFFFFFFFFFFFFFFFFFFFFFFFFFFFFFFFFFFFF AND DUP2 MSTORE POP POP POP PUSH3 0x122 JUMP JUMPDEST PUSH1 0x0 DUP1 REVERT JUMPDEST PUSH1 0x0 PUSH20 0xFFFFFFFFFFFFFFFFFFFFFFFFFFFFFFFFFFFFFFFF DUP3 AND SWAP1 POP SWAP2 SWAP1 POP JUMP JUMPDEST PUSH1 0x0 PUSH3 0xA4 DUP3 PUSH3 0x77 JUMP JUMPDEST SWAP1 POP SWAP2 SWAP1 POP JUMP JUMPDEST PUSH1 0x0 PUSH3 0xB8 DUP3 PUSH3 0x97 JUMP JUMPDEST SWAP1 POP SWAP2 SWAP1 POP JUMP JUMPDEST PUSH3 0xCA DUP2 PUSH3 0xAB JUMP JUMPDEST DUP2 EQ PUSH3 0xD6 JUMPI PUSH1 0x0 DUP1 REVERT JUMPDEST POP JUMP JUMPDEST PUSH1 0x0 DUP2 MLOAD SWAP1 POP PUSH3 0xEA DUP2 PUSH3 0xBF JUMP JUMPDEST SWAP3 SWAP2 POP POP JUMP JUMPDEST PUSH1 0x0 PUSH1 0x20 DUP3 DUP5 SUB SLT ISZERO PUSH3 0x109 JUMPI PUSH3 0x108 PUSH3 0x72 JUMP JUMPDEST JUMPDEST PUSH1 0x0 PUSH3 0x119 DUP5 DUP3 DUP6 ADD PUSH3 0xD9 JUMP JUMPDEST SWAP2 POP POP SWAP3 SWAP2 POP POP JUMP JUMPDEST PUSH1 0x80 MLOAD PUSH2 0x2368 PUSH3 0x13E PUSH1 0x0 CODECOPY PUSH1 0x0 PUSH2 0x93A ADD MSTORE PUSH2 0x2368 PUSH1 0x0 RETURN INVALID PUSH1 0x80 PUSH1 0x40 MSTORE PUSH1 0x4 CALLDATASIZE LT PUSH2 0xE1 JUMPI PUSH1 0x0 CALLDATALOAD PUSH1 0xE0 SHR DUP1 PUSH4 0xB0D691FE GT PUSH2 0x7F JUMPI DUP1 PUSH4 0xC19D93FB GT PUSH2 0x59 JUMPI DUP1 PUSH4 0xC19D93FB EQ PUSH2 0x303 JUMPI DUP1 PUSH4 0xD087D288 EQ PUSH2 0x32E JUMPI DUP1 PUSH4 0xF23A6E61 EQ PUSH2 0x359 JUMPI DUP1 PUSH4 0xFC0C546A EQ PUSH2 0x396 JUMPI PUSH2 0xE8 JUMP JUMPDEST DUP1 PUSH4 0xB0D691FE EQ PUSH2 0x272 JUMPI DUP1 PUSH4 0xB61D27F6 EQ PUSH2 0x29D JUMPI DUP1 PUSH4 0xBC197C81 EQ PUSH2 0x2C6 JUMPI PUSH2 0xE8 JUMP JUMPDEST DUP1 PUSH4 0x19822F7C GT PUSH2 0xBB JUMPI DUP1 PUSH4 0x19822F7C EQ PUSH2 0x1A4 JUMPI DUP1 PUSH4 0x47E1DA2A EQ PUSH2 0x1E1 JUMPI DUP1 PUSH4 0x523E3260 EQ PUSH2 0x20A JUMPI DUP1 PUSH4 0x8DA5CB5B EQ PUSH2 0x247 JUMPI PUSH2 0xE8 JUMP JUMPDEST DUP1 PUSH4 0x1FFC9A7 EQ PUSH2 0xED JUMPI DUP1 PUSH4 0x150B7A02 EQ PUSH2 0x12A JUMPI DUP1 PUSH4 0x1626BA7E EQ PUSH2 0x167 JUMPI PUSH2 0xE8 JUMP JUMPDEST CALLDATASIZE PUSH2 0xE8 JUMPI STOP JUMPDEST PUSH1 0x0 DUP1 REVERT JUMPDEST CALLVALUE DUP1 ISZERO PUSH2 0xF9 JUMPI PUSH1 0x0 DUP1 REVERT JUMPDEST POP PUSH2 0x114 PUSH1 0x4 DUP1 CALLDATASIZE SUB DUP2 ADD SWAP1 PUSH2 0x10F SWAP2 SWAP1 PUSH2 0x1348 JUMP JUMPDEST PUSH2 0x3C3 JUMP JUMPDEST PUSH1 0x40 MLOAD PUSH2 0x121 SWAP2 SWAP1 PUSH2 0x1390 JUMP JUMPDEST PUSH1 0x40 MLOAD DUP1 SWAP2 SUB SWAP1 RETURN JUMPDEST CALLVALUE DUP1 ISZERO PUSH2 0x136 JUMPI PUSH1 0x0 DUP1 REVERT JUMPDEST POP PUSH2 0x151 PUSH1 0x4 DUP1 CALLDATASIZE SUB DUP2 ADD SWAP1 PUSH2 0x14C SWAP2 SWAP1 PUSH2 0x14A4 JUMP JUMPDEST PUSH2 0x5CD JUMP JUMPDEST PUSH1 0x40 MLOAD PUSH2 0x15E SWAP2 SWAP1 PUSH2 0x153B JUMP JUMPDEST PUSH1 0x40 MLOAD DUP1 SWAP2 SUB SWAP1 RETURN JUMPDEST CALLVALUE DUP1 ISZERO PUSH2 0x173 JUMPI PUSH1 0x0 DUP1 REVERT JUMPDEST POP PUSH2 0x18E PUSH1 0x4 DUP1 CALLDATASIZE SUB DUP2 ADD SWAP1 PUSH2 0x189 SWAP2 SWAP1 PUSH2 0x16CD JUMP JUMPDEST PUSH2 0x5E2 JUMP JUMPDEST PUSH1 0x40 MLOAD PUSH2 0x19B SWAP2 SWAP1 PUSH2 0x153B JUMP JUMPDEST PUSH1 0x40 MLOAD DUP1 SWAP2 SUB SWAP1 RETURN JUMPDEST CALLVALUE DUP1 ISZERO PUSH2 0x1B0 JUMPI PUSH1 0x0 DUP1 REVERT JUMPDEST POP PUSH2 0x1CB PUSH1 0x4 DUP1 CALLDATASIZE SUB DUP2 ADD SWAP1 PUSH2 0x1C6 SWAP2 SWAP1 PUSH2 0x174E JUMP JUMPDEST PUSH2 0x61E JUMP JUMPDEST PUSH1 0x40 MLOAD PUSH2 0x1D8 SWAP2 SWAP1 PUSH2 0x17CC JUMP JUMPDEST PUSH1 0x40 MLOAD DUP1 SWAP2 SUB SWAP1 RETURN JUMPDEST CALLVALUE DUP1 ISZERO PUSH2 0x1ED JUMPI PUSH1 0x0 DUP1 REVERT JUMPDEST POP PUSH2 0x208 PUSH1 0x4 DUP1 CALLDATASIZE SUB DUP2 ADD SWAP1 PUSH2 0x203 SWAP2 SWAP1 PUSH2 0x18E9 JUMP JUMPDEST PUSH2 0x651 JUMP JUMPDEST STOP JUMPDEST CALLVALUE DUP1 ISZERO PUSH2 0x216 JUMPI PUSH1 0x0 DUP1 REVERT JUMPDEST POP PUSH2 0x231 PUSH1 0x4 DUP1 CALLDATASIZE SUB DUP2 ADD SWAP1 PUSH2 0x22C SWAP2 SWAP1 PUSH2 0x199D JUMP JUMPDEST PUSH2 0x832 JUMP JUMPDEST PUSH1 0x40 MLOAD PUSH2 0x23E SWAP2 SWAP1 PUSH2 0x153B JUMP JUMPDEST PUSH1 0x40 MLOAD DUP1 SWAP2 SUB SWAP1 RETURN JUMPDEST CALLVALUE DUP1 ISZERO PUSH2 0x253 JUMPI PUSH1 0x0 DUP1 REVERT JUMPDEST POP PUSH2 0x25C PUSH2 0x88C JUMP JUMPDEST PUSH1 0x40 MLOAD PUSH2 0x269 SWAP2 SWAP1 PUSH2 0x1A0C JUMP JUMPDEST PUSH1 0x40 MLOAD DUP1 SWAP2 SUB SWAP1 RETURN JUMPDEST CALLVALUE DUP1 ISZERO PUSH2 0x27E JUMPI PUSH1 0x0 DUP1 REVERT JUMPDEST POP PUSH2 0x287 PUSH2 0x936 JUMP JUMPDEST PUSH1 0x40 MLOAD PUSH2 0x294 SWAP2 SWAP1 PUSH2 0x1A86 JUMP JUMPDEST PUSH1 0x40 MLOAD DUP1 SWAP2 SUB SWAP1 RETURN JUMPDEST CALLVALUE DUP1 ISZERO PUSH2 0x2A9 JUMPI PUSH1 0x0 DUP1 REVERT JUMPDEST POP PUSH2 0x2C4 PUSH1 0x4 DUP1 CALLDATASIZE SUB DUP2 ADD SWAP1 PUSH2 0x2BF SWAP2 SWAP1 PUSH2 0x1AA1 JUMP JUMPDEST PUSH2 0x95E JUMP JUMPDEST STOP JUMPDEST CALLVALUE DUP1 ISZERO PUSH2 0x2D2 JUMPI PUSH1 0x0 DUP1 REVERT JUMPDEST POP PUSH2 0x2ED PUSH1 0x4 DUP1 CALLDATASIZE SUB DUP2 ADD SWAP1 PUSH2 0x2E8 SWAP2 SWAP1 PUSH2 0x1B15 JUMP JUMPDEST PUSH2 0xA65 JUMP JUMPDEST PUSH1 0x40 MLOAD PUSH2 0x2FA SWAP2 SWAP1 PUSH2 0x153B JUMP JUMPDEST PUSH1 0x40 MLOAD DUP1 SWAP2 SUB SWAP1 RETURN JUMPDEST CALLVALUE DUP1 ISZERO PUSH2 0x30F JUMPI PUSH1 0x0 DUP1 REVERT JUMPDEST POP PUSH2 0x318 PUSH2 0xA7D JUMP JUMPDEST PUSH1 0x40 MLOAD PUSH2 0x325 SWAP2 SWAP1 PUSH2 0x17CC JUMP JUMPDEST PUSH1 0x40 MLOAD DUP1 SWAP2 SUB SWAP1 RETURN JUMPDEST CALLVALUE DUP1 ISZERO PUSH2 0x33A JUMPI PUSH1 0x0 DUP1 REVERT JUMPDEST POP PUSH2 0x343 PUSH2 0xA86 JUMP JUMPDEST PUSH1 0x40 MLOAD PUSH2 0x350 SWAP2 SWAP1 PUSH2 0x17CC JUMP JUMPDEST PUSH1 0x40 MLOAD DUP1 SWAP2 SUB SWAP1 RETURN JUMPDEST CALLVALUE DUP1 ISZERO PUSH2 0x365 JUMPI PUSH1 0x0 DUP1 REVERT JUMPDEST POP PUSH2 0x380 PUSH1 0x4 DUP1 CALLDATASIZE SUB DUP2 ADD SWAP1 PUSH2 0x37B SWAP2 SWAP1 PUSH2 0x1BF1 JUMP JUMPDEST PUSH2 0xB11 JUMP JUMPDEST PUSH1 0x40 MLOAD PUSH2 0x38D SWAP2 SWAP1 PUSH2 0x153B JUMP JUMPDEST PUSH1 0x40 MLOAD DUP1 SWAP2 SUB SWAP1 RETURN JUMPDEST CALLVALUE DUP1 ISZERO PUSH2 0x3A2 JUMPI PUSH1 0x0 DUP1 REVERT JUMPDEST POP PUSH2 0x3AB PUSH2 0xB27 JUMP JUMPDEST PUSH1 0x40 MLOAD PUSH2 0x3BA SWAP4 SWAP3 SWAP2 SWAP1 PUSH2 0x1C8B JUMP JUMPDEST PUSH1 0x40 MLOAD DUP1 SWAP2 SUB SWAP1 RETURN JUMPDEST PUSH1 0x0 PUSH32 0x1FFC9A700000000000000000000000000000000000000000000000000000000 PUSH28 0xFFFFFFFFFFFFFFFFFFFFFFFFFFFFFFFFFFFFFFFFFFFFFFFFFFFFFFFF NOT AND DUP3 PUSH28 0xFFFFFFFFFFFFFFFFFFFFFFFFFFFFFFFFFFFFFFFFFFFFFFFFFFFFFFFF NOT AND EQ DUP1 PUSH2 0x48E JUMPI POP PUSH32 0x150B7A0200000000000000000000000000000000000000000000000000000000 PUSH28 0xFFFFFFFFFFFFFFFFFFFFFFFFFFFFFFFFFFFFFFFFFFFFFFFFFFFFFFFF NOT AND DUP3 PUSH28 0xFFFFFFFFFFFFFFFFFFFFFFFFFFFFFFFFFFFFFFFFFFFFFFFFFFFFFFFF NOT AND EQ JUMPDEST DUP1 PUSH2 0x4F6 JUMPI POP PUSH32 0x4E2312E000000000000000000000000000000000000000000000000000000000 PUSH28 0xFFFFFFFFFFFFFFFFFFFFFFFFFFFFFFFFFFFFFFFFFFFFFFFFFFFFFFFF NOT AND DUP3 PUSH28 0xFFFFFFFFFFFFFFFFFFFFFFFFFFFFFFFFFFFFFFFFFFFFFFFFFFFFFFFF NOT AND EQ JUMPDEST DUP1 PUSH2 0x55E JUMPI POP PUSH32 0x1626BA7E00000000000000000000000000000000000000000000000000000000 PUSH28 0xFFFFFFFFFFFFFFFFFFFFFFFFFFFFFFFFFFFFFFFFFFFFFFFFFFFFFFFF NOT AND DUP3 PUSH28 0xFFFFFFFFFFFFFFFFFFFFFFFFFFFFFFFFFFFFFFFFFFFFFFFFFFFFFFFF NOT AND EQ JUMPDEST DUP1 PUSH2 0x5C6 JUMPI POP PUSH32 0x6FAFF5F100000000000000000000000000000000000000000000000000000000 PUSH28 0xFFFFFFFFFFFFFFFFFFFFFFFFFFFFFFFFFFFFFFFFFFFFFFFFFFFFFFFF NOT AND DUP3 PUSH28 0xFFFFFFFFFFFFFFFFFFFFFFFFFFFFFFFFFFFFFFFFFFFFFFFFFFFFFFFF NOT AND EQ JUMPDEST SWAP1 POP SWAP2 SWAP1 POP JUMP JUMPDEST PUSH1 0x0 PUSH4 0x150B7A02 PUSH1 0xE0 SHL SWAP1 POP SWAP6 SWAP5 POP POP POP POP POP JUMP JUMPDEST PUSH1 0x0 DUP1 PUSH2 0x5F7 PUSH2 0x5F0 PUSH2 0x88C JUMP JUMPDEST DUP6 DUP6 PUSH2 0xBA7 JUMP JUMPDEST SWAP1 POP DUP1 ISZERO PUSH2 0x60F JUMPI PUSH4 0x1626BA7E PUSH1 0xE0 SHL SWAP2 POP POP PUSH2 0x618 JUMP JUMPDEST PUSH1 0x0 PUSH1 0xE0 SHL SWAP2 POP POP JUMPDEST SWAP3 SWAP2 POP POP JUMP JUMPDEST PUSH1 0x0 PUSH2 0x628 PUSH2 0xC37 JUMP JUMPDEST PUSH2 0x632 DUP5 DUP5 PUSH2 0xCAE JUMP JUMPDEST SWAP1 POP PUSH2 0x641 DUP5 PUSH1 0x20 ADD CALLDATALOAD PUSH2 0xD68 JUMP JUMPDEST PUSH2 0x64A DUP3 PUSH2 0xD6B JUMP JUMPDEST SWAP4 SWAP3 POP POP POP JUMP JUMPDEST PUSH2 0x659 PUSH2 0x936 JUMP JUMPDEST PUSH20 0xFFFFFFFFFFFFFFFFFFFFFFFFFFFFFFFFFFFFFFFF AND CALLER PUSH20 0xFFFFFFFFFFFFFFFFFFFFFFFFFFFFFFFFFFFFFFFF AND EQ DUP1 PUSH2 0x6C4 JUMPI POP PUSH2 0x695 PUSH2 0x88C JUMP JUMPDEST PUSH20 0xFFFFFFFFFFFFFFFFFFFFFFFFFFFFFFFFFFFFFFFF AND CALLER PUSH20 0xFFFFFFFFFFFFFFFFFFFFFFFFFFFFFFFFFFFFFFFF AND EQ JUMPDEST PUSH2 0x703 JUMPI PUSH1 0x40 MLOAD PUSH32 0x8C379A000000000000000000000000000000000000000000000000000000000 DUP2 MSTORE PUSH1 0x4 ADD PUSH2 0x6FA SWAP1 PUSH2 0x1D1F JUMP JUMPDEST PUSH1 0x40 MLOAD DUP1 SWAP2 SUB SWAP1 REVERT JUMPDEST DUP2 DUP2 SWAP1 POP DUP7 DUP7 SWAP1 POP EQ DUP1 ISZERO PUSH2 0x71D JUMPI POP DUP2 DUP2 SWAP1 POP DUP5 DUP5 SWAP1 POP EQ JUMPDEST PUSH2 0x75C JUMPI PUSH1 0x40 MLOAD PUSH32 0x8C379A000000000000000000000000000000000000000000000000000000000 DUP2 MSTORE PUSH1 0x4 ADD PUSH2 0x753 SWAP1 PUSH2 0x1D8B JUMP JUMPDEST PUSH1 0x40 MLOAD DUP1 SWAP2 SUB SWAP1 REVERT JUMPDEST PUSH1 0x0 JUMPDEST DUP3 DUP3 SWAP1 POP DUP2 LT ISZERO PUSH2 0x829 JUMPI PUSH2 0x81C DUP8 DUP8 DUP4 DUP2 DUP2 LT PUSH2 0x780 JUMPI PUSH2 0x77F PUSH2 0x1DAB JUMP JUMPDEST JUMPDEST SWAP1 POP PUSH1 0x20 MUL ADD PUSH1 0x20 DUP2 ADD SWAP1 PUSH2 0x795 SWAP2 SWAP1 PUSH2 0x1DDA JUMP JUMPDEST DUP7 DUP7 DUP5 DUP2 DUP2 LT PUSH2 0x7A8 JUMPI PUSH2 0x7A7 PUSH2 0x1DAB JUMP JUMPDEST JUMPDEST SWAP1 POP PUSH1 0x20 MUL ADD CALLDATALOAD DUP6 DUP6 DUP6 DUP2 DUP2 LT PUSH2 0x7C2 JUMPI PUSH2 0x7C1 PUSH2 0x1DAB JUMP JUMPDEST JUMPDEST SWAP1 POP PUSH1 0x20 MUL DUP2 ADD SWAP1 PUSH2 0x7D4 SWAP2 SWAP1 PUSH2 0x1E16 JUMP JUMPDEST DUP1 DUP1 PUSH1 0x1F ADD PUSH1 0x20 DUP1 SWAP2 DIV MUL PUSH1 0x20 ADD PUSH1 0x40 MLOAD SWAP1 DUP2 ADD PUSH1 0x40 MSTORE DUP1 SWAP4 SWAP3 SWAP2 SWAP1 DUP2 DUP2 MSTORE PUSH1 0x20 ADD DUP4 DUP4 DUP1 DUP3 DUP5 CALLDATACOPY PUSH1 0x0 DUP2 DUP5 ADD MSTORE PUSH1 0x1F NOT PUSH1 0x1F DUP3 ADD AND SWAP1 POP DUP1 DUP4 ADD SWAP3 POP POP POP POP POP POP POP PUSH2 0xE07 JUMP JUMPDEST DUP1 DUP1 PUSH1 0x1 ADD SWAP2 POP POP PUSH2 0x75F JUMP JUMPDEST POP POP POP POP POP POP POP JUMP JUMPDEST PUSH1 0x0 PUSH2 0x83C PUSH2 0x88C JUMP JUMPDEST PUSH20 0xFFFFFFFFFFFFFFFFFFFFFFFFFFFFFFFFFFFFFFFF AND DUP5 PUSH20 0xFFFFFFFFFFFFFFFFFFFFFFFFFFFFFFFFFFFFFFFF AND SUB PUSH2 0x87D JUMPI PUSH4 0x523E3260 PUSH1 0xE0 SHL SWAP1 POP PUSH2 0x885 JUMP JUMPDEST PUSH1 0x0 PUSH1 0xE0 SHL SWAP1 POP JUMPDEST SWAP4 SWAP3 POP POP POP JUMP JUMPDEST PUSH1 0x0 DUP1 PUSH1 0x0 DUP1 PUSH2 0x89A PUSH2 0xB27 JUMP JUMPDEST SWAP3 POP SWAP3 POP SWAP3 POP CHAINID DUP4 EQ PUSH2 0x8B3 JUMPI PUSH1 0x0 SWAP4 POP POP POP POP PUSH2 0x933 JUMP JUMPDEST DUP2 PUSH20 0xFFFFFFFFFFFFFFFFFFFFFFFFFFFFFFFFFFFFFFFF AND PUSH4 0x6352211E DUP3 PUSH1 0x40 MLOAD DUP3 PUSH4 0xFFFFFFFF AND PUSH1 0xE0 SHL DUP2 MSTORE PUSH1 0x4 ADD PUSH2 0x8EC SWAP2 SWAP1 PUSH2 0x17CC JUMP JUMPDEST PUSH1 0x20 PUSH1 0x40 MLOAD DUP1 DUP4 SUB DUP2 DUP7 GAS STATICCALL ISZERO DUP1 ISZERO PUSH2 0x909 JUMPI RETURNDATASIZE PUSH1 0x0 DUP1 RETURNDATACOPY RETURNDATASIZE PUSH1 0x0 REVERT JUMPDEST POP POP POP POP PUSH1 0x40 MLOAD RETURNDATASIZE PUSH1 0x1F NOT PUSH1 0x1F DUP3 ADD AND DUP3 ADD DUP1 PUSH1 0x40 MSTORE POP DUP2 ADD SWAP1 PUSH2 0x92D SWAP2 SWAP1 PUSH2 0x1E8E JUMP JUMPDEST SWAP4 POP POP POP POP JUMPDEST SWAP1 JUMP JUMPDEST PUSH1 0x0 PUSH32 0x0 SWAP1 POP SWAP1 JUMP JUMPDEST PUSH2 0x966 PUSH2 0x936 JUMP JUMPDEST PUSH20 0xFFFFFFFFFFFFFFFFFFFFFFFFFFFFFFFFFFFFFFFF AND CALLER PUSH20 0xFFFFFFFFFFFFFFFFFFFFFFFFFFFFFFFFFFFFFFFF AND EQ DUP1 PUSH2 0x9D1 JUMPI POP PUSH2 0x9A2 PUSH2 0x88C JUMP JUMPDEST PUSH20 0xFFFFFFFFFFFFFFFFFFFFFFFFFFFFFFFFFFFFFFFF AND CALLER PUSH20 0xFFFFFFFFFFFFFFFFFFFFFFFFFFFFFFFFFFFFFFFF AND EQ JUMPDEST PUSH2 0xA10 JUMPI PUSH1 0x40 MLOAD PUSH32 0x8C379A000000000000000000000000000000000000000000000000000000000 DUP2 MSTORE PUSH1 0x4 ADD PUSH2 0xA07 SWAP1 PUSH2 0x1D1F JUMP JUMPDEST PUSH1 0x40 MLOAD DUP1 SWAP2 SUB SWAP1 REVERT JUMPDEST PUSH2 0xA5F DUP5 DUP5 DUP5 DUP5 DUP1 DUP1 PUSH1 0x1F ADD PUSH1 0x20 DUP1 SWAP2 DIV MUL PUSH1 0x20 ADD PUSH1 0x40 MLOAD SWAP1 DUP2 ADD PUSH1 0x40 MSTORE DUP1 SWAP4 SWAP3 SWAP2 SWAP1 DUP2 DUP2 MSTORE PUSH1 0x20 ADD DUP4 DUP4 DUP1 DUP3 DUP5 CALLDATACOPY PUSH1 0x0 DUP2 DUP5 ADD MSTORE PUSH1 0x1F NOT PUSH1 0x1F DUP3 ADD AND SWAP1 POP DUP1 DUP4 ADD SWAP3 POP POP POP POP POP POP POP PUSH2 0xE07 JUMP JUMPDEST POP POP POP POP JUMP JUMPDEST PUSH1 0x0 PUSH4 0xBC197C81 PUSH1 0xE0 SHL SWAP1 POP SWAP9 SWAP8 POP POP POP POP POP POP POP POP JUMP JUMPDEST PUSH1 0x0 DUP1 SLOAD SWAP1 POP SWAP1 JUMP JUMPDEST PUSH1 0x0 PUSH2 0xA90 PUSH2 0x936 JUMP JUMPDEST PUSH20 0xFFFFFFFFFFFFFFFFFFFFFFFFFFFFFFFFFFFFFFFF AND PUSH4 0x35567E1A ADDRESS PUSH1 0x0 PUSH1 0x40 MLOAD DUP4 PUSH4 0xFFFFFFFF AND PUSH1 0xE0 SHL DUP2 MSTORE PUSH1 0x4 ADD PUSH2 0xACB SWAP3 SWAP2 SWAP1 PUSH2 0x1F1A JUMP JUMPDEST PUSH1 0x20 PUSH1 0x40 MLOAD DUP1 DUP4 SUB DUP2 DUP7 GAS STATICCALL ISZERO DUP1 ISZERO PUSH2 0xAE8 JUMPI RETURNDATASIZE PUSH1 0x0 DUP1 RETURNDATACOPY RETURNDATASIZE PUSH1 0x0 REVERT JUMPDEST POP POP POP POP PUSH1 0x40 MLOAD RETURNDATASIZE PUSH1 0x1F NOT PUSH1 0x1F DUP3 ADD AND DUP3 ADD DUP1 PUSH1 0x40 MSTORE POP DUP2 ADD SWAP1 PUSH2 0xB0C SWAP2 SWAP1 PUSH2 0x1F58 JUMP JUMPDEST SWAP1 POP SWAP1 JUMP JUMPDEST PUSH1 0x0 PUSH4 0xF23A6E61 PUSH1 0xE0 SHL SWAP1 POP SWAP7 SWAP6 POP POP POP POP POP POP JUMP JUMPDEST PUSH1 0x0 DUP1 PUSH1 0x0 DUP1 PUSH1 0x60 PUSH8 0xFFFFFFFFFFFFFFFF DUP2 GT ISZERO PUSH2 0xB48 JUMPI PUSH2 0xB47 PUSH2 0x15A2 JUMP JUMPDEST JUMPDEST PUSH1 0x40 MLOAD SWAP1 DUP1 DUP3 MSTORE DUP1 PUSH1 0x1F ADD PUSH1 0x1F NOT AND PUSH1 0x20 ADD DUP3 ADD PUSH1 0x40 MSTORE DUP1 ISZERO PUSH2 0xB7A JUMPI DUP2 PUSH1 0x20 ADD PUSH1 0x1 DUP3 MUL DUP1 CALLDATASIZE DUP4 CALLDATACOPY DUP1 DUP3 ADD SWAP2 POP POP SWAP1 POP JUMPDEST POP SWAP1 POP PUSH1 0x60 PUSH1 0x4D PUSH1 0x20 DUP4 ADD ADDRESS EXTCODECOPY DUP1 DUP1 PUSH1 0x20 ADD SWAP1 MLOAD DUP2 ADD SWAP1 PUSH2 0xB9B SWAP2 SWAP1 PUSH2 0x1FC3 JUMP JUMPDEST SWAP4 POP SWAP4 POP SWAP4 POP POP SWAP1 SWAP2 SWAP3 JUMP JUMPDEST PUSH1 0x0 DUP1 PUSH1 0x0 PUSH2 0xBB6 DUP6 DUP6 PUSH2 0xEA2 JUMP JUMPDEST POP SWAP2 POP SWAP2 POP PUSH1 0x0 PUSH1 0x3 DUP2 GT ISZERO PUSH2 0xBCF JUMPI PUSH2 0xBCE PUSH2 0x2016 JUMP JUMPDEST JUMPDEST DUP2 PUSH1 0x3 DUP2 GT ISZERO PUSH2 0xBE2 JUMPI PUSH2 0xBE1 PUSH2 0x2016 JUMP JUMPDEST JUMPDEST EQ DUP1 ISZERO PUSH2 0xC1A JUMPI POP DUP6 PUSH20 0xFFFFFFFFFFFFFFFFFFFFFFFFFFFFFFFFFFFFFFFF AND DUP3 PUSH20 0xFFFFFFFFFFFFFFFFFFFFFFFFFFFFFFFFFFFFFFFF AND EQ JUMPDEST DUP1 PUSH2 0xC2C JUMPI POP PUSH2 0xC2B DUP7 DUP7 DUP7 PUSH2 0xEFE JUMP JUMPDEST JUMPDEST SWAP3 POP POP POP SWAP4 SWAP3 POP POP POP JUMP JUMPDEST PUSH2 0xC3F PUSH2 0x936 JUMP JUMPDEST PUSH20 0xFFFFFFFFFFFFFFFFFFFFFFFFFFFFFFFFFFFFFFFF AND CALLER PUSH20 0xFFFFFFFFFFFFFFFFFFFFFFFFFFFFFFFFFFFFFFFF AND EQ PUSH2 0xCAC JUMPI PUSH1 0x40 MLOAD PUSH32 0x8C379A000000000000000000000000000000000000000000000000000000000 DUP2 MSTORE PUSH1 0x4 ADD PUSH2 0xCA3 SWAP1 PUSH2 0x2091 JUMP JUMPDEST PUSH1 0x40 MLOAD DUP1 SWAP2 SUB SWAP1 REVERT JUMPDEST JUMP JUMPDEST PUSH1 0x0 DUP1 PUSH2 0xCBA DUP4 PUSH2 0x1022 JUMP JUMPDEST SWAP1 POP PUSH2 0xD19 DUP2 DUP6 DUP1 PUSH2 0x100 ADD SWAP1 PUSH2 0xCD1 SWAP2 SWAP1 PUSH2 0x1E16 JUMP JUMPDEST DUP1 DUP1 PUSH1 0x1F ADD PUSH1 0x20 DUP1 SWAP2 DIV MUL PUSH1 0x20 ADD PUSH1 0x40 MLOAD SWAP1 DUP2 ADD PUSH1 0x40 MSTORE DUP1 SWAP4 SWAP3 SWAP2 SWAP1 DUP2 DUP2 MSTORE PUSH1 0x20 ADD DUP4 DUP4 DUP1 DUP3 DUP5 CALLDATACOPY PUSH1 0x0 DUP2 DUP5 ADD MSTORE PUSH1 0x1F NOT PUSH1 0x1F DUP3 ADD AND SWAP1 POP DUP1 DUP4 ADD SWAP3 POP POP POP POP POP POP POP PUSH2 0x1058 JUMP JUMPDEST PUSH20 0xFFFFFFFFFFFFFFFFFFFFFFFFFFFFFFFFFFFFFFFF AND PUSH2 0xD37 PUSH2 0x88C JUMP JUMPDEST PUSH20 0xFFFFFFFFFFFFFFFFFFFFFFFFFFFFFFFFFFFFFFFF AND EQ PUSH2 0xD5C JUMPI PUSH1 0x1 SWAP2 POP POP PUSH2 0xD62 JUMP JUMPDEST PUSH1 0x0 SWAP2 POP POP JUMPDEST SWAP3 SWAP2 POP POP JUMP JUMPDEST POP JUMP JUMPDEST PUSH1 0x0 DUP2 EQ PUSH2 0xE04 JUMPI PUSH1 0x0 CALLER PUSH20 0xFFFFFFFFFFFFFFFFFFFFFFFFFFFFFFFFFFFFFFFF AND DUP3 PUSH32 0xFFFFFFFFFFFFFFFFFFFFFFFFFFFFFFFFFFFFFFFFFFFFFFFFFFFFFFFFFFFFFFFF SWAP1 PUSH1 0x40 MLOAD PUSH2 0xDBB SWAP1 PUSH2 0x20E2 JUMP JUMPDEST PUSH1 0x0 PUSH1 0x40 MLOAD DUP1 DUP4 SUB DUP2 DUP6 DUP9 DUP9 CALL SWAP4 POP POP POP POP RETURNDATASIZE DUP1 PUSH1 0x0 DUP2 EQ PUSH2 0xDF9 JUMPI PUSH1 0x40 MLOAD SWAP2 POP PUSH1 0x1F NOT PUSH1 0x3F RETURNDATASIZE ADD AND DUP3 ADD PUSH1 0x40 MSTORE RETURNDATASIZE DUP3 MSTORE RETURNDATASIZE PUSH1 0x0 PUSH1 0x20 DUP5 ADD RETURNDATACOPY PUSH2 0xDFE JUMP JUMPDEST PUSH1 0x60 SWAP2 POP JUMPDEST POP POP SWAP1 POP POP JUMPDEST POP JUMP JUMPDEST PUSH1 0x0 DUP1 DUP5 PUSH20 0xFFFFFFFFFFFFFFFFFFFFFFFFFFFFFFFFFFFFFFFF AND DUP5 DUP5 PUSH1 0x40 MLOAD PUSH2 0xE30 SWAP2 SWAP1 PUSH2 0x215D JUMP JUMPDEST PUSH1 0x0 PUSH1 0x40 MLOAD DUP1 DUP4 SUB DUP2 DUP6 DUP8 GAS CALL SWAP3 POP POP POP RETURNDATASIZE DUP1 PUSH1 0x0 DUP2 EQ PUSH2 0xE6D JUMPI PUSH1 0x40 MLOAD SWAP2 POP PUSH1 0x1F NOT PUSH1 0x3F RETURNDATASIZE ADD AND DUP3 ADD PUSH1 0x40 MSTORE RETURNDATASIZE DUP3 MSTORE RETURNDATASIZE PUSH1 0x0 PUSH1 0x20 DUP5 ADD RETURNDATACOPY PUSH2 0xE72 JUMP JUMPDEST PUSH1 0x60 SWAP2 POP JUMPDEST POP SWAP2 POP SWAP2 POP DUP2 PUSH2 0xE84 JUMPI DUP1 MLOAD PUSH1 0x20 DUP3 ADD REVERT JUMPDEST PUSH1 0x0 DUP1 DUP2 SLOAD DUP1 SWAP3 SWAP2 SWAP1 PUSH2 0xE96 SWAP1 PUSH2 0x21A3 JUMP JUMPDEST SWAP2 SWAP1 POP SSTORE POP POP POP POP POP POP JUMP JUMPDEST PUSH1 0x0 DUP1 PUSH1 0x0 PUSH1 0x41 DUP5 MLOAD SUB PUSH2 0xEE7 JUMPI PUSH1 0x0 DUP1 PUSH1 0x0 PUSH1 0x20 DUP8 ADD MLOAD SWAP3 POP PUSH1 0x40 DUP8 ADD MLOAD SWAP2 POP PUSH1 0x60 DUP8 ADD MLOAD PUSH1 0x0 BYTE SWAP1 POP PUSH2 0xED9 DUP9 DUP3 DUP6 DUP6 PUSH2 0x1084 JUMP JUMPDEST SWAP6 POP SWAP6 POP SWAP6 POP POP POP POP PUSH2 0xEF7 JUMP JUMPDEST PUSH1 0x0 PUSH1 0x2 DUP6 MLOAD PUSH1 0x0 SHL SWAP3 POP SWAP3 POP SWAP3 POP JUMPDEST SWAP3 POP SWAP3 POP SWAP3 JUMP JUMPDEST PUSH1 0x0 DUP1 PUSH1 0x0 DUP6 PUSH20 0xFFFFFFFFFFFFFFFFFFFFFFFFFFFFFFFFFFFFFFFF AND DUP6 DUP6 PUSH1 0x40 MLOAD PUSH1 0x24 ADD PUSH2 0xF2D SWAP3 SWAP2 SWAP1 PUSH2 0x2244 JUMP JUMPDEST PUSH1 0x40 MLOAD PUSH1 0x20 DUP2 DUP4 SUB SUB DUP2 MSTORE SWAP1 PUSH1 0x40 MSTORE PUSH4 0x1626BA7E PUSH1 0xE0 SHL PUSH1 0x20 DUP3 ADD DUP1 MLOAD PUSH28 0xFFFFFFFFFFFFFFFFFFFFFFFFFFFFFFFFFFFFFFFFFFFFFFFFFFFFFFFF DUP4 DUP2 DUP4 AND OR DUP4 MSTORE POP POP POP POP PUSH1 0x40 MLOAD PUSH2 0xF7F SWAP2 SWAP1 PUSH2 0x215D JUMP JUMPDEST PUSH1 0x0 PUSH1 0x40 MLOAD DUP1 DUP4 SUB DUP2 DUP6 GAS STATICCALL SWAP2 POP POP RETURNDATASIZE DUP1 PUSH1 0x0 DUP2 EQ PUSH2 0xFBA JUMPI PUSH1 0x40 MLOAD SWAP2 POP PUSH1 0x1F NOT PUSH1 0x3F RETURNDATASIZE ADD AND DUP3 ADD PUSH1 0x40 MSTORE RETURNDATASIZE DUP3 MSTORE RETURNDATASIZE PUSH1 0x0 PUSH1 0x20 DUP5 ADD RETURNDATACOPY PUSH2 0xFBF JUMP JUMPDEST PUSH1 0x60 SWAP2 POP JUMPDEST POP SWAP2 POP SWAP2 POP DUP2 DUP1 ISZERO PUSH2 0xFD3 JUMPI POP PUSH1 0x20 DUP2 MLOAD LT ISZERO JUMPDEST DUP1 ISZERO PUSH2 0x1017 JUMPI POP PUSH4 0x1626BA7E PUSH1 0xE0 SHL PUSH28 0xFFFFFFFFFFFFFFFFFFFFFFFFFFFFFFFFFFFFFFFFFFFFFFFFFFFFFFFF NOT AND DUP2 DUP1 PUSH1 0x20 ADD SWAP1 MLOAD DUP2 ADD SWAP1 PUSH2 0x1015 SWAP2 SWAP1 PUSH2 0x2289 JUMP JUMPDEST EQ JUMPDEST SWAP3 POP POP POP SWAP4 SWAP3 POP POP POP JUMP JUMPDEST PUSH1 0x0 PUSH32 0x19457468657265756D205369676E6564204D6573736167653A0A333200000000 PUSH1 0x0 MSTORE DUP2 PUSH1 0x1C MSTORE PUSH1 0x3C PUSH1 0x0 KECCAK256 SWAP1 POP SWAP2 SWAP1 POP JUMP JUMPDEST PUSH1 0x0 DUP1 PUSH1 0x0 DUP1 PUSH2 0x1068 DUP7 DUP7 PUSH2 0xEA2 JUMP JUMPDEST SWAP3 POP SWAP3 POP SWAP3 POP PUSH2 0x1078 DUP3 DUP3 PUSH2 0x1178 JUMP JUMPDEST DUP3 SWAP4 POP POP POP POP SWAP3 SWAP2 POP POP JUMP JUMPDEST PUSH1 0x0 DUP1 PUSH1 0x0 PUSH32 0x7FFFFFFFFFFFFFFFFFFFFFFFFFFFFFFF5D576E7357A4501DDFE92F46681B20A0 DUP5 PUSH1 0x0 SHR GT ISZERO PUSH2 0x10C4 JUMPI PUSH1 0x0 PUSH1 0x3 DUP6 SWAP3 POP SWAP3 POP SWAP3 POP PUSH2 0x116E JUMP JUMPDEST PUSH1 0x0 PUSH1 0x1 DUP9 DUP9 DUP9 DUP9 PUSH1 0x40 MLOAD PUSH1 0x0 DUP2 MSTORE PUSH1 0x20 ADD PUSH1 0x40 MSTORE PUSH1 0x40 MLOAD PUSH2 0x10E9 SWAP5 SWAP4 SWAP3 SWAP2 SWAP1 PUSH2 0x22D2 JUMP JUMPDEST PUSH1 0x20 PUSH1 0x40 MLOAD PUSH1 0x20 DUP2 SUB SWAP1 DUP1 DUP5 SUB SWAP1 DUP6 GAS STATICCALL ISZERO DUP1 ISZERO PUSH2 0x110B JUMPI RETURNDATASIZE PUSH1 0x0 DUP1 RETURNDATACOPY RETURNDATASIZE PUSH1 0x0 REVERT JUMPDEST POP POP POP PUSH1 0x20 PUSH1 0x40 MLOAD SUB MLOAD SWAP1 POP PUSH1 0x0 PUSH20 0xFFFFFFFFFFFFFFFFFFFFFFFFFFFFFFFFFFFFFFFF AND DUP2 PUSH20 0xFFFFFFFFFFFFFFFFFFFFFFFFFFFFFFFFFFFFFFFF AND SUB PUSH2 0x115F JUMPI PUSH1 0x0 PUSH1 0x1 PUSH1 0x0 DUP1 SHL SWAP4 POP SWAP4 POP SWAP4 POP POP PUSH2 0x116E JUMP JUMPDEST DUP1 PUSH1 0x0 DUP1 PUSH1 0x0 SHL SWAP4 POP SWAP4 POP SWAP4 POP POP JUMPDEST SWAP5 POP SWAP5 POP SWAP5 SWAP2 POP POP JUMP JUMPDEST PUSH1 0x0 PUSH1 0x3 DUP2 GT ISZERO PUSH2 0x118C JUMPI PUSH2 0x118B PUSH2 0x2016 JUMP JUMPDEST JUMPDEST DUP3 PUSH1 0x3 DUP2 GT ISZERO PUSH2 0x119F JUMPI PUSH2 0x119E PUSH2 0x2016 JUMP JUMPDEST JUMPDEST SUB ISZERO PUSH2 0x12D8 JUMPI PUSH1 0x1 PUSH1 0x3 DUP2 GT ISZERO PUSH2 0x11B9 JUMPI PUSH2 0x11B8 PUSH2 0x2016 JUMP JUMPDEST JUMPDEST DUP3 PUSH1 0x3 DUP2 GT ISZERO PUSH2 0x11CC JUMPI PUSH2 0x11CB PUSH2 0x2016 JUMP JUMPDEST JUMPDEST SUB PUSH2 0x1203 JUMPI PUSH1 0x40 MLOAD PUSH32 0xF645EEDF00000000000000000000000000000000000000000000000000000000 DUP2 MSTORE PUSH1 0x4 ADD PUSH1 0x40 MLOAD DUP1 SWAP2 SUB SWAP1 REVERT JUMPDEST PUSH1 0x2 PUSH1 0x3 DUP2 GT ISZERO PUSH2 0x1217 JUMPI PUSH2 0x1216 PUSH2 0x2016 JUMP JUMPDEST JUMPDEST DUP3 PUSH1 0x3 DUP2 GT ISZERO PUSH2 0x122A JUMPI PUSH2 0x1229 PUSH2 0x2016 JUMP JUMPDEST JUMPDEST SUB PUSH2 0x126F JUMPI DUP1 PUSH1 0x0 SHR PUSH1 0x40 MLOAD PUSH32 0xFCE698F700000000000000000000000000000000000000000000000000000000 DUP2 MSTORE PUSH1 0x4 ADD PUSH2 0x1266 SWAP2 SWAP1 PUSH2 0x17CC JUMP JUMPDEST PUSH1 0x40 MLOAD DUP1 SWAP2 SUB SWAP1 REVERT JUMPDEST PUSH1 0x3 DUP1 DUP2 GT ISZERO PUSH2 0x1282 JUMPI PUSH2 0x1281 PUSH2 0x2016 JUMP JUMPDEST JUMPDEST DUP3 PUSH1 0x3 DUP2 GT ISZERO PUSH2 0x1295 JUMPI PUSH2 0x1294 PUSH2 0x2016 JUMP JUMPDEST JUMPDEST SUB PUSH2 0x12D7 JUMPI DUP1 PUSH1 0x40 MLOAD PUSH32 0xD78BCE0C00000000000000000000000000000000000000000000000000000000 DUP2 MSTORE PUSH1 0x4 ADD PUSH2 0x12CE SWAP2 SWAP1 PUSH2 0x2317 JUMP JUMPDEST PUSH1 0x40 MLOAD DUP1 SWAP2 SUB SWAP1 REVERT JUMPDEST JUMPDEST POP POP JUMP JUMPDEST PUSH1 0x0 PUSH1 0x40 MLOAD SWAP1 POP SWAP1 JUMP JUMPDEST PUSH1 0x0 DUP1 REVERT JUMPDEST PUSH1 0x0 DUP1 REVERT JUMPDEST PUSH1 0x0 PUSH32 0xFFFFFFFF00000000000000000000000000000000000000000000000000000000 DUP3 AND SWAP1 POP SWAP2 SWAP1 POP JUMP JUMPDEST PUSH2 0x1325 DUP2 PUSH2 0x12F0 JUMP JUMPDEST DUP2 EQ PUSH2 0x1330 JUMPI PUSH1 0x0 DUP1 REVERT JUMPDEST POP JUMP JUMPDEST PUSH1 0x0 DUP2 CALLDATALOAD SWAP1 POP PUSH2 0x1342 DUP2 PUSH2 0x131C JUMP JUMPDEST SWAP3 SWAP2 POP POP JUMP JUMPDEST PUSH1 0x0 PUSH1 0x20 DUP3 DUP5 SUB SLT ISZERO PUSH2 0x135E JUMPI PUSH2 0x135D PUSH2 0x12E6 JUMP JUMPDEST JUMPDEST PUSH1 0x0 PUSH2 0x136C DUP5 DUP3 DUP6 ADD PUSH2 0x1333 JUMP JUMPDEST SWAP2 POP POP SWAP3 SWAP2 POP POP JUMP JUMPDEST PUSH1 0x0 DUP2 ISZERO ISZERO SWAP1 POP SWAP2 SWAP1 POP JUMP JUMPDEST PUSH2 0x138A DUP2 PUSH2 0x1375 JUMP JUMPDEST DUP3 MSTORE POP POP JUMP JUMPDEST PUSH1 0x0 PUSH1 0x20 DUP3 ADD SWAP1 POP PUSH2 0x13A5 PUSH1 0x0 DUP4 ADD DUP5 PUSH2 0x1381 JUMP JUMPDEST SWAP3 SWAP2 POP POP JUMP JUMPDEST PUSH1 0x0 PUSH20 0xFFFFFFFFFFFFFFFFFFFFFFFFFFFFFFFFFFFFFFFF DUP3 AND SWAP1 POP SWAP2 SWAP1 POP JUMP JUMPDEST PUSH1 0x0 PUSH2 0x13D6 DUP3 PUSH2 0x13AB JUMP JUMPDEST SWAP1 POP SWAP2 SWAP1 POP JUMP JUMPDEST PUSH2 0x13E6 DUP2 PUSH2 0x13CB JUMP JUMPDEST DUP2 EQ PUSH2 0x13F1 JUMPI PUSH1 0x0 DUP1 REVERT JUMPDEST POP JUMP JUMPDEST PUSH1 0x0 DUP2 CALLDATALOAD SWAP1 POP PUSH2 0x1403 DUP2 PUSH2 0x13DD JUMP JUMPDEST SWAP3 SWAP2 POP POP JUMP JUMPDEST PUSH1 0x0 DUP2 SWAP1 POP SWAP2 SWAP1 POP JUMP JUMPDEST PUSH2 0x141C DUP2 PUSH2 0x1409 JUMP JUMPDEST DUP2 EQ PUSH2 0x1427 JUMPI PUSH1 0x0 DUP1 REVERT JUMPDEST POP JUMP JUMPDEST PUSH1 0x0 DUP2 CALLDATALOAD SWAP1 POP PUSH2 0x1439 DUP2 PUSH2 0x1413 JUMP JUMPDEST SWAP3 SWAP2 POP POP JUMP JUMPDEST PUSH1 0x0 DUP1 REVERT JUMPDEST PUSH1 0x0 DUP1 REVERT JUMPDEST PUSH1 0x0 DUP1 REVERT JUMPDEST PUSH1 0x0 DUP1 DUP4 PUSH1 0x1F DUP5 ADD SLT PUSH2 0x1464 JUMPI PUSH2 0x1463 PUSH2 0x143F JUMP JUMPDEST JUMPDEST DUP3 CALLDATALOAD SWAP1 POP PUSH8 0xFFFFFFFFFFFFFFFF DUP2 GT ISZERO PUSH2 0x1481 JUMPI PUSH2 0x1480 PUSH2 0x1444 JUMP JUMPDEST JUMPDEST PUSH1 0x20 DUP4 ADD SWAP2 POP DUP4 PUSH1 0x1 DUP3 MUL DUP4 ADD GT ISZERO PUSH2 0x149D JUMPI PUSH2 0x149C PUSH2 0x1449 JUMP JUMPDEST JUMPDEST SWAP3 POP SWAP3 SWAP1 POP JUMP JUMPDEST PUSH1 0x0 DUP1 PUSH1 0x0 DUP1 PUSH1 0x0 PUSH1 0x80 DUP7 DUP9 SUB SLT ISZERO PUSH2 0x14C0 JUMPI PUSH2 0x14BF PUSH2 0x12E6 JUMP JUMPDEST JUMPDEST PUSH1 0x0 PUSH2 0x14CE DUP9 DUP3 DUP10 ADD PUSH2 0x13F4 JUMP JUMPDEST SWAP6 POP POP PUSH1 0x20 PUSH2 0x14DF DUP9 DUP3 DUP10 ADD PUSH2 0x13F4 JUMP JUMPDEST SWAP5 POP POP PUSH1 0x40 PUSH2 0x14F0 DUP9 DUP3 DUP10 ADD PUSH2 0x142A JUMP JUMPDEST SWAP4 POP POP PUSH1 0x60 DUP7 ADD CALLDATALOAD PUSH8 0xFFFFFFFFFFFFFFFF DUP2 GT ISZERO PUSH2 0x1511 JUMPI PUSH2 0x1510 PUSH2 0x12EB JUMP JUMPDEST JUMPDEST PUSH2 0x151D DUP9 DUP3 DUP10 ADD PUSH2 0x144E JUMP JUMPDEST SWAP3 POP SWAP3 POP POP SWAP3 SWAP6 POP SWAP3 SWAP6 SWAP1 SWAP4 POP JUMP JUMPDEST PUSH2 0x1535 DUP2 PUSH2 0x12F0 JUMP JUMPDEST DUP3 MSTORE POP POP JUMP JUMPDEST PUSH1 0x0 PUSH1 0x20 DUP3 ADD SWAP1 POP PUSH2 0x1550 PUSH1 0x0 DUP4 ADD DUP5 PUSH2 0x152C JUMP JUMPDEST SWAP3 SWAP2 POP POP JUMP JUMPDEST PUSH1 0x0 DUP2 SWAP1 POP SWAP2 SWAP1 POP JUMP JUMPDEST PUSH2 0x1569 DUP2 PUSH2 0x1556 JUMP JUMPDEST DUP2 EQ PUSH2 0x1574 JUMPI PUSH1 0x0 DUP1 REVERT JUMPDEST POP JUMP JUMPDEST PUSH1 0x0 DUP2 CALLDATALOAD SWAP1 POP PUSH2 0x1586 DUP2 PUSH2 0x1560 JUMP JUMPDEST SWAP3 SWAP2 POP POP JUMP JUMPDEST PUSH1 0x0 DUP1 REVERT JUMPDEST PUSH1 0x0 PUSH1 0x1F NOT PUSH1 0x1F DUP4 ADD AND SWAP1 POP SWAP2 SWAP1 POP JUMP JUMPDEST PUSH32 0x4E487B7100000000000000000000000000000000000000000000000000000000 PUSH1 0x0 MSTORE PUSH1 0x41 PUSH1 0x4 MSTORE PUSH1 0x24 PUSH1 0x0 REVERT JUMPDEST PUSH2 0x15DA DUP3 PUSH2 0x1591 JUMP JUMPDEST DUP2 ADD DUP2 DUP2 LT PUSH8 0xFFFFFFFFFFFFFFFF DUP3 GT OR ISZERO PUSH2 0x15F9 JUMPI PUSH2 0x15F8 PUSH2 0x15A2 JUMP JUMPDEST JUMPDEST DUP1 PUSH1 0x40 MSTORE POP POP POP JUMP JUMPDEST PUSH1 0x0 PUSH2 0x160C PUSH2 0x12DC JUMP JUMPDEST SWAP1 POP PUSH2 0x1618 DUP3 DUP3 PUSH2 0x15D1 JUMP JUMPDEST SWAP2 SWAP1 POP JUMP JUMPDEST PUSH1 0x0 PUSH8 0xFFFFFFFFFFFFFFFF DUP3 GT ISZERO PUSH2 0x1638 JUMPI PUSH2 0x1637 PUSH2 0x15A2 JUMP JUMPDEST JUMPDEST PUSH2 0x1641 DUP3 PUSH2 0x1591 JUMP JUMPDEST SWAP1 POP PUSH1 0x20 DUP2 ADD SWAP1 POP SWAP2 SWAP1 POP JUMP JUMPDEST DUP3 DUP2 DUP4 CALLDATACOPY PUSH1 0x0 DUP4 DUP4 ADD MSTORE POP POP POP JUMP JUMPDEST PUSH1 0x0 PUSH2 0x1670 PUSH2 0x166B DUP5 PUSH2 0x161D JUMP JUMPDEST PUSH2 0x1602 JUMP JUMPDEST SWAP1 POP DUP3 DUP2 MSTORE PUSH1 0x20 DUP2 ADD DUP5 DUP5 DUP5 ADD GT ISZERO PUSH2 0x168C JUMPI PUSH2 0x168B PUSH2 0x158C JUMP JUMPDEST JUMPDEST PUSH2 0x1697 DUP5 DUP3 DUP6 PUSH2 0x164E JUMP JUMPDEST POP SWAP4 SWAP3 POP POP POP JUMP JUMPDEST PUSH1 0x0 DUP3 PUSH1 0x1F DUP4 ADD SLT PUSH2 0x16B4 JUMPI PUSH2 0x16B3 PUSH2 0x143F JUMP JUMPDEST JUMPDEST DUP2 CALLDATALOAD PUSH2 0x16C4 DUP5 DUP3 PUSH1 0x20 DUP7 ADD PUSH2 0x165D JUMP JUMPDEST SWAP2 POP POP SWAP3 SWAP2 POP POP JUMP JUMPDEST PUSH1 0x0 DUP1 PUSH1 0x40 DUP4 DUP6 SUB SLT ISZERO PUSH2 0x16E4 JUMPI PUSH2 0x16E3 PUSH2 0x12E6 JUMP JUMPDEST JUMPDEST PUSH1 0x0 PUSH2 0x16F2 DUP6 DUP3 DUP7 ADD PUSH2 0x1577 JUMP JUMPDEST SWAP3 POP POP PUSH1 0x20 DUP4 ADD CALLDATALOAD PUSH8 0xFFFFFFFFFFFFFFFF DUP2 GT ISZERO PUSH2 0x1713 JUMPI PUSH2 0x1712 PUSH2 0x12EB JUMP JUMPDEST JUMPDEST PUSH2 0x171F DUP6 DUP3 DUP7 ADD PUSH2 0x169F JUMP JUMPDEST SWAP2 POP POP SWAP3 POP SWAP3 SWAP1 POP JUMP JUMPDEST PUSH1 0x0 DUP1 REVERT JUMPDEST PUSH1 0x0 PUSH2 0x120 DUP3 DUP5 SUB SLT ISZERO PUSH2 0x1745 JUMPI PUSH2 0x1744 PUSH2 0x1729 JUMP JUMPDEST JUMPDEST DUP2 SWAP1 POP SWAP3 SWAP2 POP POP JUMP JUMPDEST PUSH1 0x0 DUP1 PUSH1 0x0 PUSH1 0x60 DUP5 DUP7 SUB SLT ISZERO PUSH2 0x1767 JUMPI PUSH2 0x1766 PUSH2 0x12E6 JUMP JUMPDEST JUMPDEST PUSH1 0x0 DUP5 ADD CALLDATALOAD PUSH8 0xFFFFFFFFFFFFFFFF DUP2 GT ISZERO PUSH2 0x1785 JUMPI PUSH2 0x1784 PUSH2 0x12EB JUMP JUMPDEST JUMPDEST PUSH2 0x1791 DUP7 DUP3 DUP8 ADD PUSH2 0x172E JUMP JUMPDEST SWAP4 POP POP PUSH1 0x20 PUSH2 0x17A2 DUP7 DUP3 DUP8 ADD PUSH2 0x1577 JUMP JUMPDEST SWAP3 POP POP PUSH1 0x40 PUSH2 0x17B3 DUP7 DUP3 DUP8 ADD PUSH2 0x142A JUMP JUMPDEST SWAP2 POP POP SWAP3 POP SWAP3 POP SWAP3 JUMP JUMPDEST PUSH2 0x17C6 DUP2 PUSH2 0x1409 JUMP JUMPDEST DUP3 MSTORE POP POP JUMP JUMPDEST PUSH1 0x0 PUSH1 0x20 DUP3 ADD SWAP1 POP PUSH2 0x17E1 PUSH1 0x0 DUP4 ADD DUP5 PUSH2 0x17BD JUMP JUMPDEST SWAP3 SWAP2 POP POP JUMP JUMPDEST PUSH1 0x0 DUP1 DUP4 PUSH1 0x1F DUP5 ADD SLT PUSH2 0x17FD JUMPI PUSH2 0x17FC PUSH2 0x143F JUMP JUMPDEST JUMPDEST DUP3 CALLDATALOAD SWAP1 POP PUSH8 0xFFFFFFFFFFFFFFFF DUP2 GT ISZERO PUSH2 0x181A JUMPI PUSH2 0x1819 PUSH2 0x1444 JUMP JUMPDEST JUMPDEST PUSH1 0x20 DUP4 ADD SWAP2 POP DUP4 PUSH1 0x20 DUP3 MUL DUP4 ADD GT ISZERO PUSH2 0x1836 JUMPI PUSH2 0x1835 PUSH2 0x1449 JUMP JUMPDEST JUMPDEST SWAP3 POP SWAP3 SWAP1 POP JUMP JUMPDEST PUSH1 0x0 DUP1 DUP4 PUSH1 0x1F DUP5 ADD SLT PUSH2 0x1853 JUMPI PUSH2 0x1852 PUSH2 0x143F JUMP JUMPDEST JUMPDEST DUP3 CALLDATALOAD SWAP1 POP PUSH8 0xFFFFFFFFFFFFFFFF DUP2 GT ISZERO PUSH2 0x1870 JUMPI PUSH2 0x186F PUSH2 0x1444 JUMP JUMPDEST JUMPDEST PUSH1 0x20 DUP4 ADD SWAP2 POP DUP4 PUSH1 0x20 DUP3 MUL DUP4 ADD GT ISZERO PUSH2 0x188C JUMPI PUSH2 0x188B PUSH2 0x1449 JUMP JUMPDEST JUMPDEST SWAP3 POP SWAP3 SWAP1 POP JUMP JUMPDEST PUSH1 0x0 DUP1 DUP4 PUSH1 0x1F DUP5 ADD SLT PUSH2 0x18A9 JUMPI PUSH2 0x18A8 PUSH2 0x143F JUMP JUMPDEST JUMPDEST DUP3 CALLDATALOAD SWAP1 POP PUSH8 0xFFFFFFFFFFFFFFFF DUP2 GT ISZERO PUSH2 0x18C6 JUMPI PUSH2 0x18C5 PUSH2 0x1444 JUMP JUMPDEST JUMPDEST PUSH1 0x20 DUP4 ADD SWAP2 POP DUP4 PUSH1 0x20 DUP3 MUL DUP4 ADD GT ISZERO PUSH2 0x18E2 JUMPI PUSH2 0x18E1 PUSH2 0x1449 JUMP JUMPDEST JUMPDEST SWAP3 POP SWAP3 SWAP1 POP JUMP JUMPDEST PUSH1 0x0 DUP1 PUSH1 0x0 DUP1 PUSH1 0x0 DUP1 PUSH1 0x60 DUP8 DUP10 SUB SLT ISZERO PUSH2 0x1906 JUMPI PUSH2 0x1905 PUSH2 0x12E6 JUMP JUMPDEST JUMPDEST PUSH1 0x0 DUP8 ADD CALLDATALOAD PUSH8 0xFFFFFFFFFFFFFFFF DUP2 GT ISZERO PUSH2 0x1924 JUMPI PUSH2 0x1923 PUSH2 0x12EB JUMP JUMPDEST JUMPDEST PUSH2 0x1930 DUP10 DUP3 DUP11 ADD PUSH2 0x17E7 JUMP JUMPDEST SWAP7 POP SWAP7 POP POP PUSH1 0x20 DUP8 ADD CALLDATALOAD PUSH8 0xFFFFFFFFFFFFFFFF DUP2 GT ISZERO PUSH2 0x1953 JUMPI PUSH2 0x1952 PUSH2 0x12EB JUMP JUMPDEST JUMPDEST PUSH2 0x195F DUP10 DUP3 DUP11 ADD PUSH2 0x183D JUMP JUMPDEST SWAP5 POP SWAP5 POP POP PUSH1 0x40 DUP8 ADD CALLDATALOAD PUSH8 0xFFFFFFFFFFFFFFFF DUP2 GT ISZERO PUSH2 0x1982 JUMPI PUSH2 0x1981 PUSH2 0x12EB JUMP JUMPDEST JUMPDEST PUSH2 0x198E DUP10 DUP3 DUP11 ADD PUSH2 0x1893 JUMP JUMPDEST SWAP3 POP SWAP3 POP POP SWAP3 SWAP6 POP SWAP3 SWAP6 POP SWAP3 SWAP6 JUMP JUMPDEST PUSH1 0x0 DUP1 PUSH1 0x0 PUSH1 0x40 DUP5 DUP7 SUB SLT ISZERO PUSH2 0x19B6 JUMPI PUSH2 0x19B5 PUSH2 0x12E6 JUMP JUMPDEST JUMPDEST PUSH1 0x0 PUSH2 0x19C4 DUP7 DUP3 DUP8 ADD PUSH2 0x13F4 JUMP JUMPDEST SWAP4 POP POP PUSH1 0x20 DUP5 ADD CALLDATALOAD PUSH8 0xFFFFFFFFFFFFFFFF DUP2 GT ISZERO PUSH2 0x19E5 JUMPI PUSH2 0x19E4 PUSH2 0x12EB JUMP JUMPDEST JUMPDEST PUSH2 0x19F1 DUP7 DUP3 DUP8 ADD PUSH2 0x144E JUMP JUMPDEST SWAP3 POP SWAP3 POP POP SWAP3 POP SWAP3 POP SWAP3 JUMP JUMPDEST PUSH2 0x1A06 DUP2 PUSH2 0x13CB JUMP JUMPDEST DUP3 MSTORE POP POP JUMP JUMPDEST PUSH1 0x0 PUSH1 0x20 DUP3 ADD SWAP1 POP PUSH2 0x1A21 PUSH1 0x0 DUP4 ADD DUP5 PUSH2 0x19FD JUMP JUMPDEST SWAP3 SWAP2 POP POP JUMP JUMPDEST PUSH1 0x0 DUP2 SWAP1 POP SWAP2 SWAP1 POP JUMP JUMPDEST PUSH1 0x0 PUSH2 0x1A4C PUSH2 0x1A47 PUSH2 0x1A42 DUP5 PUSH2 0x13AB JUMP JUMPDEST PUSH2 0x1A27 JUMP JUMPDEST PUSH2 0x13AB JUMP JUMPDEST SWAP1 POP SWAP2 SWAP1 POP JUMP JUMPDEST PUSH1 0x0 PUSH2 0x1A5E DUP3 PUSH2 0x1A31 JUMP JUMPDEST SWAP1 POP SWAP2 SWAP1 POP JUMP JUMPDEST PUSH1 0x0 PUSH2 0x1A70 DUP3 PUSH2 0x1A53 JUMP JUMPDEST SWAP1 POP SWAP2 SWAP1 POP JUMP JUMPDEST PUSH2 0x1A80 DUP2 PUSH2 0x1A65 JUMP JUMPDEST DUP3 MSTORE POP POP JUMP JUMPDEST PUSH1 0x0 PUSH1 0x20 DUP3 ADD SWAP1 POP PUSH2 0x1A9B PUSH1 0x0 DUP4 ADD DUP5 PUSH2 0x1A77 JUMP JUMPDEST SWAP3 SWAP2 POP POP JUMP JUMPDEST PUSH1 0x0 DUP1 PUSH1 0x0 DUP1 PUSH1 0x60 DUP6 DUP8 SUB SLT ISZERO PUSH2 0x1ABB JUMPI PUSH2 0x1ABA PUSH2 0x12E6 JUMP JUMPDEST JUMPDEST PUSH1 0x0 PUSH2 0x1AC9 DUP8 DUP3 DUP9 ADD PUSH2 0x13F4 JUMP JUMPDEST SWAP5 POP POP PUSH1 0x20 PUSH2 0x1ADA DUP8 DUP3 DUP9 ADD PUSH2 0x142A JUMP JUMPDEST SWAP4 POP POP PUSH1 0x40 DUP6 ADD CALLDATALOAD PUSH8 0xFFFFFFFFFFFFFFFF DUP2 GT ISZERO PUSH2 0x1AFB JUMPI PUSH2 0x1AFA PUSH2 0x12EB JUMP JUMPDEST JUMPDEST PUSH2 0x1B07 DUP8 DUP3 DUP9 ADD PUSH2 0x144E JUMP JUMPDEST SWAP3 POP SWAP3 POP POP SWAP3 SWAP6 SWAP2 SWAP5 POP SWAP3 POP JUMP JUMPDEST PUSH1 0x0 DUP1 PUSH1 0x0 DUP1 PUSH1 0x0 DUP1 PUSH1 0x0 DUP1 PUSH1 0xA0 DUP10 DUP12 SUB SLT ISZERO PUSH2 0x1B35 JUMPI PUSH2 0x1B34 PUSH2 0x12E6 JUMP JUMPDEST JUMPDEST PUSH1 0x0 PUSH2 0x1B43 DUP12 DUP3 DUP13 ADD PUSH2 0x13F4 JUMP JUMPDEST SWAP9 POP POP PUSH1 0x20 PUSH2 0x1B54 DUP12 DUP3 DUP13 ADD PUSH2 0x13F4 JUMP JUMPDEST SWAP8 POP POP PUSH1 0x40 DUP10 ADD CALLDATALOAD PUSH8 0xFFFFFFFFFFFFFFFF DUP2 GT ISZERO PUSH2 0x1B75 JUMPI PUSH2 0x1B74 PUSH2 0x12EB JUMP JUMPDEST JUMPDEST PUSH2 0x1B81 DUP12 DUP3 DUP13 ADD PUSH2 0x183D JUMP JUMPDEST SWAP7 POP SWAP7 POP POP PUSH1 0x60 DUP10 ADD CALLDATALOAD PUSH8 0xFFFFFFFFFFFFFFFF DUP2 GT ISZERO PUSH2 0x1BA4 JUMPI PUSH2 0x1BA3 PUSH2 0x12EB JUMP JUMPDEST JUMPDEST PUSH2 0x1BB0 DUP12 DUP3 DUP13 ADD PUSH2 0x183D JUMP JUMPDEST SWAP5 POP SWAP5 POP POP PUSH1 0x80 DUP10 ADD CALLDATALOAD PUSH8 0xFFFFFFFFFFFFFFFF DUP2 GT ISZERO PUSH2 0x1BD3 JUMPI PUSH2 0x1BD2 PUSH2 0x12EB JUMP JUMPDEST JUMPDEST PUSH2 0x1BDF DUP12 DUP3 DUP13 ADD PUSH2 0x144E JUMP JUMPDEST SWAP3 POP SWAP3 POP POP SWAP3 SWAP6 SWAP9 POP SWAP3 SWAP6 SWAP9 SWAP1 SWAP4 SWAP7 POP JUMP JUMPDEST PUSH1 0x0 DUP1 PUSH1 0x0 DUP1 PUSH1 0x0 DUP1 PUSH1 0xA0 DUP8 DUP10 SUB SLT ISZERO PUSH2 0x1C0E JUMPI PUSH2 0x1C0D PUSH2 0x12E6 JUMP JUMPDEST JUMPDEST PUSH1 0x0 PUSH2 0x1C1C DUP10 DUP3 DUP11 ADD PUSH2 0x13F4 JUMP JUMPDEST SWAP7 POP POP PUSH1 0x20 PUSH2 0x1C2D DUP10 DUP3 DUP11 ADD PUSH2 0x13F4 JUMP JUMPDEST SWAP6 POP POP PUSH1 0x40 PUSH2 0x1C3E DUP10 DUP3 DUP11 ADD PUSH2 0x142A JUMP JUMPDEST SWAP5 POP POP PUSH1 0x60 PUSH2 0x1C4F DUP10 DUP3 DUP11 ADD PUSH2 0x142A JUMP JUMPDEST SWAP4 POP POP PUSH1 0x80 DUP8 ADD CALLDATALOAD PUSH8 0xFFFFFFFFFFFFFFFF DUP2 GT ISZERO PUSH2 0x1C70 JUMPI PUSH2 0x1C6F PUSH2 0x12EB JUMP JUMPDEST JUMPDEST PUSH2 0x1C7C DUP10 DUP3 DUP11 ADD PUSH2 0x144E JUMP JUMPDEST SWAP3 POP SWAP3 POP POP SWAP3 SWAP6 POP SWAP3 SWAP6 POP SWAP3 SWAP6 JUMP JUMPDEST PUSH1 0x0 PUSH1 0x60 DUP3 ADD SWAP1 POP PUSH2 0x1CA0 PUSH1 0x0 DUP4 ADD DUP7 PUSH2 0x17BD JUMP JUMPDEST PUSH2 0x1CAD PUSH1 0x20 DUP4 ADD DUP6 PUSH2 0x19FD JUMP JUMPDEST PUSH2 0x1CBA PUSH1 0x40 DUP4 ADD DUP5 PUSH2 0x17BD JUMP JUMPDEST SWAP5 SWAP4 POP POP POP POP JUMP JUMPDEST PUSH1 0x0 DUP3 DUP3 MSTORE PUSH1 0x20 DUP3 ADD SWAP1 POP SWAP3 SWAP2 POP POP JUMP JUMPDEST PUSH32 0x6163636F756E743A206E6F74204F776E6572206F7220456E747279506F696E74 PUSH1 0x0 DUP3 ADD MSTORE POP JUMP JUMPDEST PUSH1 0x0 PUSH2 0x1D09 PUSH1 0x20 DUP4 PUSH2 0x1CC2 JUMP JUMPDEST SWAP2 POP PUSH2 0x1D14 DUP3 PUSH2 0x1CD3 JUMP JUMPDEST PUSH1 0x20 DUP3 ADD SWAP1 POP SWAP2 SWAP1 POP JUMP JUMPDEST PUSH1 0x0 PUSH1 0x20 DUP3 ADD SWAP1 POP DUP2 DUP2 SUB PUSH1 0x0 DUP4 ADD MSTORE PUSH2 0x1D38 DUP2 PUSH2 0x1CFC JUMP JUMPDEST SWAP1 POP SWAP2 SWAP1 POP JUMP JUMPDEST PUSH32 0x77726F6E67206172726179206C656E6774687300000000000000000000000000 PUSH1 0x0 DUP3 ADD MSTORE POP JUMP JUMPDEST PUSH1 0x0 PUSH2 0x1D75 PUSH1 0x13 DUP4 PUSH2 0x1CC2 JUMP JUMPDEST SWAP2 POP PUSH2 0x1D80 DUP3 PUSH2 0x1D3F JUMP JUMPDEST PUSH1 0x20 DUP3 ADD SWAP1 POP SWAP2 SWAP1 POP JUMP JUMPDEST PUSH1 0x0 PUSH1 0x20 DUP3 ADD SWAP1 POP DUP2 DUP2 SUB PUSH1 0x0 DUP4 ADD MSTORE PUSH2 0x1DA4 DUP2 PUSH2 0x1D68 JUMP JUMPDEST SWAP1 POP SWAP2 SWAP1 POP JUMP JUMPDEST PUSH32 0x4E487B7100000000000000000000000000000000000000000000000000000000 PUSH1 0x0 MSTORE PUSH1 0x32 PUSH1 0x4 MSTORE PUSH1 0x24 PUSH1 0x0 REVERT JUMPDEST PUSH1 0x0 PUSH1 0x20 DUP3 DUP5 SUB SLT ISZERO PUSH2 0x1DF0 JUMPI PUSH2 0x1DEF PUSH2 0x12E6 JUMP JUMPDEST JUMPDEST PUSH1 0x0 PUSH2 0x1DFE DUP5 DUP3 DUP6 ADD PUSH2 0x13F4 JUMP JUMPDEST SWAP2 POP POP SWAP3 SWAP2 POP POP JUMP JUMPDEST PUSH1 0x0 DUP1 REVERT JUMPDEST PUSH1 0x0 DUP1 REVERT JUMPDEST PUSH1 0x0 DUP1 REVERT JUMPDEST PUSH1 0x0 DUP1 DUP4 CALLDATALOAD PUSH1 0x1 PUSH1 0x20 SUB DUP5 CALLDATASIZE SUB SUB DUP2 SLT PUSH2 0x1E33 JUMPI PUSH2 0x1E32 PUSH2 0x1E07 JUMP JUMPDEST JUMPDEST DUP1 DUP5 ADD SWAP3 POP DUP3 CALLDATALOAD SWAP2 POP PUSH8 0xFFFFFFFFFFFFFFFF DUP3 GT ISZERO PUSH2 0x1E55 JUMPI PUSH2 0x1E54 PUSH2 0x1E0C JUMP JUMPDEST JUMPDEST PUSH1 0x20 DUP4 ADD SWAP3 POP PUSH1 0x1 DUP3 MUL CALLDATASIZE SUB DUP4 SGT ISZERO PUSH2 0x1E71 JUMPI PUSH2 0x1E70 PUSH2 0x1E11 JUMP JUMPDEST JUMPDEST POP SWAP3 POP SWAP3 SWAP1 POP JUMP JUMPDEST PUSH1 0x0 DUP2 MLOAD SWAP1 POP PUSH2 0x1E88 DUP2 PUSH2 0x13DD JUMP JUMPDEST SWAP3 SWAP2 POP POP JUMP JUMPDEST PUSH1 0x0 PUSH1 0x20 DUP3 DUP5 SUB SLT ISZERO PUSH2 0x1EA4 JUMPI PUSH2 0x1EA3 PUSH2 0x12E6 JUMP JUMPDEST JUMPDEST PUSH1 0x0 PUSH2 0x1EB2 DUP5 DUP3 DUP6 ADD PUSH2 0x1E79 JUMP JUMPDEST SWAP2 POP POP SWAP3 SWAP2 POP POP JUMP JUMPDEST PUSH1 0x0 DUP2 SWAP1 POP SWAP2 SWAP1 POP JUMP JUMPDEST PUSH1 0x0 PUSH24 0xFFFFFFFFFFFFFFFFFFFFFFFFFFFFFFFFFFFFFFFFFFFFFFFF DUP3 AND SWAP1 POP SWAP2 SWAP1 POP JUMP JUMPDEST PUSH1 0x0 PUSH2 0x1F04 PUSH2 0x1EFF PUSH2 0x1EFA DUP5 PUSH2 0x1EBB JUMP JUMPDEST PUSH2 0x1A27 JUMP JUMPDEST PUSH2 0x1EC5 JUMP JUMPDEST SWAP1 POP SWAP2 SWAP1 POP JUMP JUMPDEST PUSH2 0x1F14 DUP2 PUSH2 0x1EE9 JUMP JUMPDEST DUP3 MSTORE POP POP JUMP JUMPDEST PUSH1 0x0 PUSH1 0x40 DUP3 ADD SWAP1 POP PUSH2 0x1F2F PUSH1 0x0 DUP4 ADD DUP6 PUSH2 0x19FD JUMP JUMPDEST PUSH2 0x1F3C PUSH1 0x20 DUP4 ADD DUP5 PUSH2 0x1F0B JUMP JUMPDEST SWAP4 SWAP3 POP POP POP JUMP JUMPDEST PUSH1 0x0 DUP2 MLOAD SWAP1 POP PUSH2 0x1F52 DUP2 PUSH2 0x1413 JUMP JUMPDEST SWAP3 SWAP2 POP POP JUMP JUMPDEST PUSH1 0x0 PUSH1 0x20 DUP3 DUP5 SUB SLT ISZERO PUSH2 0x1F6E JUMPI PUSH2 0x1F6D PUSH2 0x12E6 JUMP JUMPDEST JUMPDEST PUSH1 0x0 PUSH2 0x1F7C DUP5 DUP3 DUP6 ADD PUSH2 0x1F43 JUMP JUMPDEST SWAP2 POP POP SWAP3 SWAP2 POP POP JUMP JUMPDEST PUSH1 0x0 PUSH2 0x1F90 DUP3 PUSH2 0x13AB JUMP JUMPDEST SWAP1 POP SWAP2 SWAP1 POP JUMP JUMPDEST PUSH2 0x1FA0 DUP2 PUSH2 0x1F85 JUMP JUMPDEST DUP2 EQ PUSH2 0x1FAB JUMPI PUSH1 0x0 DUP1 REVERT JUMPDEST POP JUMP JUMPDEST PUSH1 0x0 DUP2 MLOAD SWAP1 POP PUSH2 0x1FBD DUP2 PUSH2 0x1F97 JUMP JUMPDEST SWAP3 SWAP2 POP POP JUMP JUMPDEST PUSH1 0x0 DUP1 PUSH1 0x0 PUSH1 0x60 DUP5 DUP7 SUB SLT ISZERO PUSH2 0x1FDC JUMPI PUSH2 0x1FDB PUSH2 0x12E6 JUMP JUMPDEST JUMPDEST PUSH1 0x0 PUSH2 0x1FEA DUP7 DUP3 DUP8 ADD PUSH2 0x1F43 JUMP JUMPDEST SWAP4 POP POP PUSH1 0x20 PUSH2 0x1FFB DUP7 DUP3 DUP8 ADD PUSH2 0x1FAE JUMP JUMPDEST SWAP3 POP POP PUSH1 0x40 PUSH2 0x200C DUP7 DUP3 DUP8 ADD PUSH2 0x1F43 JUMP JUMPDEST SWAP2 POP POP SWAP3 POP SWAP3 POP SWAP3 JUMP JUMPDEST PUSH32 0x4E487B7100000000000000000000000000000000000000000000000000000000 PUSH1 0x0 MSTORE PUSH1 0x21 PUSH1 0x4 MSTORE PUSH1 0x24 PUSH1 0x0 REVERT JUMPDEST PUSH32 0x6163636F756E743A206E6F742066726F6D20456E747279506F696E7400000000 PUSH1 0x0 DUP3 ADD MSTORE POP JUMP JUMPDEST PUSH1 0x0 PUSH2 0x207B PUSH1 0x1C DUP4 PUSH2 0x1CC2 JUMP JUMPDEST SWAP2 POP PUSH2 0x2086 DUP3 PUSH2 0x2045 JUMP JUMPDEST PUSH1 0x20 DUP3 ADD SWAP1 POP SWAP2 SWAP1 POP JUMP JUMPDEST PUSH1 0x0 PUSH1 0x20 DUP3 ADD SWAP1 POP DUP2 DUP2 SUB PUSH1 0x0 DUP4 ADD MSTORE PUSH2 0x20AA DUP2 PUSH2 0x206E JUMP JUMPDEST SWAP1 POP SWAP2 SWAP1 POP JUMP JUMPDEST PUSH1 0x0 DUP2 SWAP1 POP SWAP3 SWAP2 POP POP JUMP JUMPDEST POP JUMP JUMPDEST PUSH1 0x0 PUSH2 0x20CC PUSH1 0x0 DUP4 PUSH2 0x20B1 JUMP JUMPDEST SWAP2 POP PUSH2 0x20D7 DUP3 PUSH2 0x20BC JUMP JUMPDEST PUSH1 0x0 DUP3 ADD SWAP1 POP SWAP2 SWAP1 POP JUMP JUMPDEST PUSH1 0x0 PUSH2 0x20ED DUP3 PUSH2 0x20BF JUMP JUMPDEST SWAP2 POP DUP2 SWAP1 POP SWAP2 SWAP1 POP JUMP JUMPDEST PUSH1 0x0 DUP2 MLOAD SWAP1 POP SWAP2 SWAP1 POP JUMP JUMPDEST PUSH1 0x0 JUMPDEST DUP4 DUP2 LT ISZERO PUSH2 0x2120 JUMPI DUP1 DUP3 ADD MLOAD DUP2 DUP5 ADD MSTORE PUSH1 0x20 DUP2 ADD SWAP1 POP PUSH2 0x2105 JUMP JUMPDEST PUSH1 0x0 DUP5 DUP5 ADD MSTORE POP POP POP POP JUMP JUMPDEST PUSH1 0x0 PUSH2 0x2137 DUP3 PUSH2 0x20F7 JUMP JUMPDEST PUSH2 0x2141 DUP2 DUP6 PUSH2 0x20B1 JUMP JUMPDEST SWAP4 POP PUSH2 0x2151 DUP2 DUP6 PUSH1 0x20 DUP7 ADD PUSH2 0x2102 JUMP JUMPDEST DUP1 DUP5 ADD SWAP2 POP POP SWAP3 SWAP2 POP POP JUMP JUMPDEST PUSH1 0x0 PUSH2 0x2169 DUP3 DUP5 PUSH2 0x212C JUMP JUMPDEST SWAP2 POP DUP2 SWAP1 POP SWAP3 SWAP2 POP POP JUMP JUMPDEST PUSH32 0x4E487B7100000000000000000000000000000000000000000000000000000000 PUSH1 0x0 MSTORE PUSH1 0x11 PUSH1 0x4 MSTORE PUSH1 0x24 PUSH1 0x0 REVERT JUMPDEST PUSH1 0x0 PUSH2 0x21AE DUP3 PUSH2 0x1409 JUMP JUMPDEST SWAP2 POP PUSH32 0xFFFFFFFFFFFFFFFFFFFFFFFFFFFFFFFFFFFFFFFFFFFFFFFFFFFFFFFFFFFFFFFF DUP3 SUB PUSH2 0x21E0 JUMPI PUSH2 0x21DF PUSH2 0x2174 JUMP JUMPDEST JUMPDEST PUSH1 0x1 DUP3 ADD SWAP1 POP SWAP2 SWAP1 POP JUMP JUMPDEST PUSH2 0x21F4 DUP2 PUSH2 0x1556 JUMP JUMPDEST DUP3 MSTORE POP POP JUMP JUMPDEST PUSH1 0x0 DUP3 DUP3 MSTORE PUSH1 0x20 DUP3 ADD SWAP1 POP SWAP3 SWAP2 POP POP JUMP JUMPDEST PUSH1 0x0 PUSH2 0x2216 DUP3 PUSH2 0x20F7 JUMP JUMPDEST PUSH2 0x2220 DUP2 DUP6 PUSH2 0x21FA JUMP JUMPDEST SWAP4 POP PUSH2 0x2230 DUP2 DUP6 PUSH1 0x20 DUP7 ADD PUSH2 0x2102 JUMP JUMPDEST PUSH2 0x2239 DUP2 PUSH2 0x1591 JUMP JUMPDEST DUP5 ADD SWAP2 POP POP SWAP3 SWAP2 POP POP JUMP JUMPDEST PUSH1 0x0 PUSH1 0x40 DUP3 ADD SWAP1 POP PUSH2 0x2259 PUSH1 0x0 DUP4 ADD DUP6 PUSH2 0x21EB JUMP JUMPDEST DUP2 DUP2 SUB PUSH1 0x20 DUP4 ADD MSTORE PUSH2 0x226B DUP2 DUP5 PUSH2 0x220B JUMP JUMPDEST SWAP1 POP SWAP4 SWAP3 POP POP POP JUMP JUMPDEST PUSH1 0x0 DUP2 MLOAD SWAP1 POP PUSH2 0x2283 DUP2 PUSH2 0x1560 JUMP JUMPDEST SWAP3 SWAP2 POP POP JUMP JUMPDEST PUSH1 0x0 PUSH1 0x20 DUP3 DUP5 SUB SLT ISZERO PUSH2 0x229F JUMPI PUSH2 0x229E PUSH2 0x12E6 JUMP JUMPDEST JUMPDEST PUSH1 0x0 PUSH2 0x22AD DUP5 DUP3 DUP6 ADD PUSH2 0x2274 JUMP JUMPDEST SWAP2 POP POP SWAP3 SWAP2 POP POP JUMP JUMPDEST PUSH1 0x0 PUSH1 0xFF DUP3 AND SWAP1 POP SWAP2 SWAP1 POP JUMP JUMPDEST PUSH2 0x22CC DUP2 PUSH2 0x22B6 JUMP JUMPDEST DUP3 MSTORE POP POP JUMP JUMPDEST PUSH1 0x0 PUSH1 0x80 DUP3 ADD SWAP1 POP PUSH2 0x22E7 PUSH1 0x0 DUP4 ADD DUP8 PUSH2 0x21EB JUMP JUMPDEST PUSH2 0x22F4 PUSH1 0x20 DUP4 ADD DUP7 PUSH2 0x22C3 JUMP JUMPDEST PUSH2 0x2301 PUSH1 0x40 DUP4 ADD DUP6 PUSH2 0x21EB JUMP JUMPDEST PUSH2 0x230E PUSH1 0x60 DUP4 ADD DUP5 PUSH2 0x21EB JUMP JUMPDEST SWAP6 SWAP5 POP POP POP POP POP JUMP JUMPDEST PUSH1 0x0 PUSH1 0x20 DUP3 ADD SWAP1 POP PUSH2 0x232C PUSH1 0x0 DUP4 ADD DUP5 PUSH2 0x21EB JUMP JUMPDEST SWAP3 SWAP2 POP POP JUMP INVALID LOG2 PUSH5 0x6970667358 0x22 SLT KECCAK256 OR 0xC1 0xE3 DIV 0xB2 0xEA 0xAD 0xB7 0xC1 0xCE 0xDE DUP3 SWAP6 0xFC SGT REVERT 0x2D 0xAC 0xEA PUSH12 0x17123D9831515F44973EEF30 PUSH5 0x736F6C6343 STOP ADDMOD XOR STOP CALLER "
        },
        "methodIdentifiers": {
          "entryPoint()": "b0d691fe",
          "execute(address,uint256,bytes)": "b61d27f6",
          "executeBatch(address[],uint256[],bytes[])": "47e1da2a",
          "getNonce()": "d087d288",
          "isValidSignature(bytes32,bytes)": "1626ba7e",
          "isValidSigner(address,bytes)": "523e3260",
          "onERC1155BatchReceived(address,address,uint256[],uint256[],bytes)": "bc197c81",
          "onERC1155Received(address,address,uint256,uint256,bytes)": "f23a6e61",
          "onERC721Received(address,address,uint256,bytes)": "150b7a02",
          "owner()": "8da5cb5b",
          "state()": "c19d93fb",
          "supportsInterface(bytes4)": "01ffc9a7",
          "token()": "fc0c546a",
          "validateUserOp((address,uint256,bytes,bytes,bytes32,uint256,bytes32,bytes,bytes),bytes32,uint256)": "19822f7c"
        }
      }
    }
  }
}